{
  "address": "0x818bf4442F2FE189967cA531b3D951Ca2462beAD",
  "abi": [
    {
      "inputs": [
        {
          "internalType": "address",
          "name": "initialOwner",
          "type": "address"
        },
        {
          "internalType": "address",
          "name": "balloonTokenAddress",
          "type": "address"
        },
        {
          "internalType": "address",
          "name": "verifierAddress",
          "type": "address"
        }
      ],
      "stateMutability": "nonpayable",
      "type": "constructor"
    },
    {
      "inputs": [],
      "name": "AlreadyClaimed",
      "type": "error"
    },
    {
      "inputs": [],
      "name": "InvalidProof",
      "type": "error"
    },
    {
      "inputs": [],
      "name": "InvalidPublicInputs",
      "type": "error"
    },
    {
      "inputs": [
        {
          "internalType": "address",
          "name": "owner",
          "type": "address"
        }
      ],
      "name": "OwnableInvalidOwner",
      "type": "error"
    },
    {
      "inputs": [
        {
          "internalType": "address",
          "name": "account",
          "type": "address"
        }
      ],
      "name": "OwnableUnauthorizedAccount",
      "type": "error"
    },
    {
      "anonymous": false,
      "inputs": [
        {
          "indexed": false,
          "internalType": "uint16",
          "name": "earliestBirthYear",
          "type": "uint16"
        }
      ],
      "name": "AgeRestrictionUpdated",
      "type": "event"
    },
    {
      "anonymous": false,
      "inputs": [
        {
          "indexed": false,
          "internalType": "bytes32",
          "name": "authorityPublicKeyX",
          "type": "bytes32"
        },
        {
          "indexed": false,
          "internalType": "bytes32",
          "name": "authorityPublicKeyY",
          "type": "bytes32"
        }
      ],
      "name": "AuthorityUpdated",
      "type": "event"
    },
    {
      "anonymous": false,
      "inputs": [
        {
          "indexed": true,
          "internalType": "address",
          "name": "claimer",
          "type": "address"
        },
        {
          "indexed": false,
          "internalType": "uint256",
          "name": "amount",
          "type": "uint256"
        }
      ],
      "name": "FreeTokenClaimed",
      "type": "event"
    },
    {
      "anonymous": false,
      "inputs": [
        {
          "indexed": true,
          "internalType": "address",
          "name": "previousOwner",
          "type": "address"
        },
        {
          "indexed": true,
          "internalType": "address",
          "name": "newOwner",
          "type": "address"
        }
      ],
      "name": "OwnershipTransferred",
      "type": "event"
    },
    {
      "anonymous": false,
      "inputs": [
        {
          "indexed": true,
          "internalType": "address",
          "name": "verifier",
          "type": "address"
        }
      ],
      "name": "VerifierUpdated",
      "type": "event"
    },
    {
      "inputs": [],
      "name": "FREE_TOKEN_AMOUNT",
      "outputs": [
        {
          "internalType": "uint256",
          "name": "",
          "type": "uint256"
        }
      ],
      "stateMutability": "view",
      "type": "function"
    },
    {
      "inputs": [],
      "name": "authorityPublicKeyX",
      "outputs": [
        {
          "internalType": "bytes32",
          "name": "",
          "type": "bytes32"
        }
      ],
      "stateMutability": "view",
      "type": "function"
    },
    {
      "inputs": [],
      "name": "authorityPublicKeyY",
      "outputs": [
        {
          "internalType": "bytes32",
          "name": "",
          "type": "bytes32"
        }
      ],
      "stateMutability": "view",
      "type": "function"
    },
    {
      "inputs": [],
      "name": "balloonToken",
      "outputs": [
        {
          "internalType": "contract IERC20",
          "name": "",
          "type": "address"
        }
      ],
      "stateMutability": "view",
      "type": "function"
    },
    {
      "inputs": [],
      "name": "earliestBirthYear",
      "outputs": [
        {
          "internalType": "uint16",
          "name": "",
          "type": "uint16"
        }
      ],
      "stateMutability": "view",
      "type": "function"
    },
    {
      "inputs": [
        {
          "internalType": "bytes",
          "name": "proof",
          "type": "bytes"
        },
        {
          "internalType": "bytes32[]",
          "name": "publicInputs",
          "type": "bytes32[]"
        }
      ],
      "name": "getFreeToken",
      "outputs": [],
      "stateMutability": "nonpayable",
      "type": "function"
    },
    {
      "inputs": [
        {
          "internalType": "address",
          "name": "",
          "type": "address"
        }
      ],
      "name": "hasClaimedFreeToken",
      "outputs": [
        {
          "internalType": "bool",
          "name": "",
          "type": "bool"
        }
      ],
      "stateMutability": "view",
      "type": "function"
    },
    {
      "inputs": [],
      "name": "owner",
      "outputs": [
        {
          "internalType": "address",
          "name": "",
          "type": "address"
        }
      ],
      "stateMutability": "view",
      "type": "function"
    },
    {
      "inputs": [],
      "name": "renounceOwnership",
      "outputs": [],
      "stateMutability": "nonpayable",
      "type": "function"
    },
    {
      "inputs": [
        {
          "internalType": "uint16",
          "name": "nextEarliestBirthYear",
          "type": "uint16"
        }
      ],
      "name": "setAgeRestriction",
      "outputs": [],
      "stateMutability": "nonpayable",
      "type": "function"
    },
    {
      "inputs": [
        {
          "internalType": "bytes32",
          "name": "nextAuthorityPublicKeyX",
          "type": "bytes32"
        },
        {
          "internalType": "bytes32",
          "name": "nextAuthorityPublicKeyY",
          "type": "bytes32"
        }
      ],
      "name": "setAuthority",
      "outputs": [],
      "stateMutability": "nonpayable",
      "type": "function"
    },
    {
      "inputs": [
        {
          "internalType": "address",
          "name": "verifierAddress",
          "type": "address"
        }
      ],
      "name": "setVerifier",
      "outputs": [],
      "stateMutability": "nonpayable",
      "type": "function"
    },
    {
      "inputs": [
        {
          "internalType": "address",
          "name": "newOwner",
          "type": "address"
        }
      ],
      "name": "transferOwnership",
      "outputs": [],
      "stateMutability": "nonpayable",
      "type": "function"
    },
    {
      "inputs": [],
      "name": "verifier",
      "outputs": [
        {
          "internalType": "contract IUltraVerifier",
          "name": "",
          "type": "address"
        }
      ],
      "stateMutability": "view",
      "type": "function"
    }
  ],
  "transactionHash": "0x8f3cdaf8ee21d7b13f919f02d190bf5e53f43b21690dfa24d0ac17742a4ae9cc",
  "args": [
    "0x605f34A4D345de8c03214572cda476BeA237d445",
    "0x47e3d33fB0f3AB05B0a1A768E8dBB373418AB737",
    "0x10e1b70E2D4c1b6dA4b0aBee66A24fbFb4e8B19a"
  ],
  "numDeployments": 1,
  "solcInputHash": "8e6a41f59078d126a6fa05048b186798",
  "bytecode": "0x60a06040526001805461ffff60a01b19166107dd60a01b1790557fba5734d8f7091719471e7f7ed6b9df170dc70cc661ca05e688601ad984f068b06002557fd67351e5f06073092499336ab0839ef8a521afd334e53807205fa2f08eec74f460035534801561006d57600080fd5b50604051610b93380380610b9383398101604081905261008c9161015a565b826001600160a01b0381166100bb57604051631e4fbdf760e01b81526000600482015260240160405180910390fd5b6100c4816100ee565b506001600160a01b03918216608052600180546001600160a01b031916919092161790555061019d565b600080546001600160a01b038381166001600160a01b0319831681178455604051919092169283917f8be0079c531659141344cd1fd0a4f28419497f9722a3daafe3b4186f6b6457e09190a35050565b80516001600160a01b038116811461015557600080fd5b919050565b60008060006060848603121561016f57600080fd5b6101788461013e565b92506101866020850161013e565b91506101946040850161013e565b90509250925092565b6080516109d46101bf6000396000818161010a01526104a101526109d46000f3fe608060405234801561001057600080fd5b50600436106100ba5760003560e01c80632b7ac3f3146100bf5780633919b56e146100e85780633ba85ce4146101055780635437988d1461012c5780635eaed3511461014157806360ccdbbd14610169578063715018a6146101725780638da5cb5b1461017a578063c0c4850514610182578063d46ed18814610195578063e4e59917146101c8578063f2fde38b146101db578063f687ed98146101ee578063facac132146101f7575b600080fd5b6001546100d2906001600160a01b031681565b6040516100df9190610757565b60405180910390f35b6100f7670de0b6b3a764000081565b6040519081526020016100df565b6100d27f000000000000000000000000000000000000000000000000000000000000000081565b61013f61013a36600461076b565b61020a565b005b60015461015690600160a01b900461ffff1681565b60405161ffff90911681526020016100df565b6100f760025481565b61013f61025c565b6100d2610270565b61013f610190366004610794565b61027f565b6101b86101a336600461076b565b60046020526000908152604090205460ff1681565b60405190151581526020016100df565b61013f6101d63660046107b8565b6102dd565b61013f6101e936600461076b565b61032c565b6100f760035481565b61013f6102053660046107da565b610373565b61021261055a565b600180546001600160a01b0319166001600160a01b0383169081179091556040517fd24015cc99cc1700cafca3042840a1d8ac1e3964fd2e0e37ea29c654056ee32790600090a250565b61026461055a565b61026e600061058c565b565b6000546001600160a01b031690565b61028761055a565b6001805461ffff60a01b1916600160a01b61ffff8416908102919091179091556040519081527f7f481d8faf31efda2b88392c3102f7c71e930cb486b496c37fe1c82ffaf97a129060200160405180910390a150565b6102e561055a565b6002829055600381905560408051838152602081018390527f70d6f6c4c8e538b338053199f5480faffa1c14c1ade4f98c48d67e7b13ca4eaf910160405180910390a15050565b61033461055a565b6001600160a01b038116610367576000604051631e4fbdf760e01b815260040161035e9190610757565b60405180910390fd5b6103708161058c565b50565b3360009081526004602052604090205460ff16156103a457604051630c8d9eab60e31b815260040160405180910390fd5b6103af8282336105dc565b6103cc576040516319dcebfb60e21b815260040160405180910390fd5b600154604051633a94343960e21b81526001600160a01b039091169063ea50d0e4906104029087908790879087906004016108a9565b602060405180830381865afa15801561041f573d6000803e3d6000fd5b505050506040513d601f19601f82011682018060405250810190610443919061090d565b610460576040516309bde33960e01b815260040160405180910390fd5b33600081815260046020819052604091829020805460ff19166001179055905163a9059cbb60e01b815290810191909152670de0b6b3a764000060248201527f00000000000000000000000000000000000000000000000000000000000000006001600160a01b03169063a9059cbb906044016020604051808303816000875af11580156104f2573d6000803e3d6000fd5b505050506040513d601f19601f82011682018060405250810190610516919061090d565b50604051670de0b6b3a7640000815233907f87001c77022863fef8d32679db2ac27731f48a3503a5729f19e4cdaa7ae4f0599060200160405180910390a250505050565b33610563610270565b6001600160a01b03161461026e573360405163118cdaa760e01b815260040161035e9190610757565b600080546001600160a01b038381166001600160a01b0319831681178455604051919092169283917f8be0079c531659141344cd1fd0a4f28419497f9722a3daafe3b4186f6b6457e09190a35050565b6000605583146105ee57506000610659565b60006105f983610660565b905060005b6055811015610652578181815181106106195761061961092f565b60200260200101518686838181106106335761063361092f565b905060200201351461064a57600092505050610659565b6001016105fe565b5060019150505b9392505050565b604080516055808252610ac0820190925260609160208201610aa080368337019050506001548151919250600160a01b900461ffff169082906000906106a8576106a861092f565b6020026020010181815250506106c481600254600160206106f0565b6106d481600354602160206106f0565b6106eb816001600160a01b038416604160146106f0565b919050565b60005b818110156107505760ff8161070960018561095b565b610713919061095b565b61071e906008610974565b85901c168561072d838661098b565b8151811061073d5761073d61092f565b60209081029190910101526001016106f3565b5050505050565b6001600160a01b0391909116815260200190565b60006020828403121561077d57600080fd5b81356001600160a01b038116811461065957600080fd5b6000602082840312156107a657600080fd5b813561ffff8116811461065957600080fd5b600080604083850312156107cb57600080fd5b50508035926020909101359150565b600080600080604085870312156107f057600080fd5b84356001600160401b0381111561080657600080fd5b8501601f8101871361081757600080fd5b80356001600160401b0381111561082d57600080fd5b87602082840101111561083f57600080fd5b6020918201955093508501356001600160401b0381111561085f57600080fd5b8501601f8101871361087057600080fd5b80356001600160401b0381111561088657600080fd5b8760208260051b840101111561089b57600080fd5b949793965060200194505050565b6040815283604082015283856060830137600060608583018101829052601f19601f8701168301838103820160208501529081018490526001600160fb1b038411156108f457600080fd5b8360051b80866080840137016080019695505050505050565b60006020828403121561091f57600080fd5b8151801515811461065957600080fd5b634e487b7160e01b600052603260045260246000fd5b634e487b7160e01b600052601160045260246000fd5b8181038181111561096e5761096e610945565b92915050565b808202811582820484141761096e5761096e610945565b8082018082111561096e5761096e61094556fea2646970667358221220c79272673ca50711abfa53bcf1aa584fa3faee00ee6ca998767a1bd7afe21cc264736f6c634300081e0033",
  "devdoc": {
    "errors": {
      "OwnableInvalidOwner(address)": [
        {
          "details": "The owner is not a valid owner account. (eg. `address(0)`)"
        }
      ],
      "OwnableUnauthorizedAccount(address)": [
        {
          "details": "The caller account is not authorized to perform an operation."
        }
      ]
    },
    "kind": "dev",
    "methods": {
      "owner()": {
        "details": "Returns the address of the current owner."
      },
      "renounceOwnership()": {
        "details": "Leaves the contract without owner. It will not be possible to call `onlyOwner` functions. Can only be called by the current owner. NOTE: Renouncing ownership will leave the contract without an owner, thereby disabling any functionality that is only available to the owner."
      },
      "transferOwnership(address)": {
        "details": "Transfers ownership of the contract to a new account (`newOwner`). Can only be called by the current owner."
      }
    },
    "version": 1
  },
  "userdoc": {
    "kind": "user",
    "methods": {},
    "version": 1
  },
  "storageLayout": {
    "storage": [
      {
        "astId": 8,
        "contract": "contracts/BalloonVendor.sol:BalloonVendor",
        "label": "_owner",
        "offset": 0,
        "slot": "0",
        "type": "t_address"
      },
      {
        "astId": 990,
        "contract": "contracts/BalloonVendor.sol:BalloonVendor",
        "label": "verifier",
        "offset": 0,
        "slot": "1",
        "type": "t_contract(IUltraVerifier)1341"
      },
      {
        "astId": 993,
        "contract": "contracts/BalloonVendor.sol:BalloonVendor",
        "label": "earliestBirthYear",
        "offset": 20,
        "slot": "1",
        "type": "t_uint16"
      },
      {
        "astId": 996,
        "contract": "contracts/BalloonVendor.sol:BalloonVendor",
        "label": "authorityPublicKeyX",
        "offset": 0,
        "slot": "2",
        "type": "t_bytes32"
      },
      {
        "astId": 999,
        "contract": "contracts/BalloonVendor.sol:BalloonVendor",
        "label": "authorityPublicKeyY",
        "offset": 0,
        "slot": "3",
        "type": "t_bytes32"
      },
      {
        "astId": 1003,
        "contract": "contracts/BalloonVendor.sol:BalloonVendor",
        "label": "hasClaimedFreeToken",
        "offset": 0,
        "slot": "4",
        "type": "t_mapping(t_address,t_bool)"
      }
    ],
    "types": {
      "t_address": {
        "encoding": "inplace",
        "label": "address",
        "numberOfBytes": "20"
      },
      "t_bool": {
        "encoding": "inplace",
        "label": "bool",
        "numberOfBytes": "1"
      },
      "t_bytes32": {
        "encoding": "inplace",
        "label": "bytes32",
        "numberOfBytes": "32"
      },
      "t_contract(IUltraVerifier)1341": {
        "encoding": "inplace",
        "label": "contract IUltraVerifier",
        "numberOfBytes": "20"
      },
      "t_mapping(t_address,t_bool)": {
        "encoding": "mapping",
        "key": "t_address",
        "label": "mapping(address => bool)",
        "numberOfBytes": "32",
        "value": "t_bool"
      },
      "t_uint16": {
        "encoding": "inplace",
        "label": "uint16",
        "numberOfBytes": "2"
      }
    }
  }
}