{
  "address": "0x5f8e6A8E75CF93C81a5F49afbccDF3cB74Eb5521",
  "abi": [
    {
      "inputs": [
        {
          "internalType": "address",
          "name": "initialOwner",
          "type": "address"
        }
      ],
      "stateMutability": "nonpayable",
      "type": "constructor"
    },
    {
      "inputs": [],
      "name": "HashAlreadyRegistered",
      "type": "error"
    },
    {
      "inputs": [
        {
          "internalType": "address",
          "name": "owner",
          "type": "address"
        }
      ],
      "name": "OwnableInvalidOwner",
      "type": "error"
    },
    {
      "inputs": [
        {
          "internalType": "address",
          "name": "account",
          "type": "address"
        }
      ],
      "name": "OwnableUnauthorizedAccount",
      "type": "error"
    },
    {
      "anonymous": false,
      "inputs": [
        {
          "indexed": true,
          "internalType": "bytes32",
          "name": "documentHash",
          "type": "bytes32"
        },
        {
          "indexed": true,
          "internalType": "address",
          "name": "registeredBy",
          "type": "address"
        },
        {
          "indexed": false,
          "internalType": "string",
          "name": "studentId",
          "type": "string"
        },
        {
          "indexed": false,
          "internalType": "string",
          "name": "institutionName",
          "type": "string"
        },
        {
          "indexed": false,
          "internalType": "uint256",
          "name": "timestamp",
          "type": "uint256"
        }
      ],
      "name": "CertificateHashRegistered",
      "type": "event"
    },
    {
      "anonymous": false,
      "inputs": [
        {
          "indexed": true,
          "internalType": "address",
          "name": "previousOwner",
          "type": "address"
        },
        {
          "indexed": true,
          "internalType": "address",
          "name": "newOwner",
          "type": "address"
        }
      ],
      "name": "OwnershipTransferred",
      "type": "event"
    },
    {
      "inputs": [
        {
          "internalType": "bytes32",
          "name": "",
          "type": "bytes32"
        }
      ],
      "name": "certificateHashes",
      "outputs": [
        {
          "internalType": "address",
          "name": "registeredBy",
          "type": "address"
        },
        {
          "internalType": "uint256",
          "name": "registeredAt",
          "type": "uint256"
        },
        {
          "internalType": "string",
          "name": "studentId",
          "type": "string"
        },
        {
          "internalType": "string",
          "name": "institutionName",
          "type": "string"
        },
        {
          "internalType": "bool",
          "name": "exists",
          "type": "bool"
        }
      ],
      "stateMutability": "view",
      "type": "function"
    },
    {
      "inputs": [],
      "name": "owner",
      "outputs": [
        {
          "internalType": "address",
          "name": "",
          "type": "address"
        }
      ],
      "stateMutability": "view",
      "type": "function"
    },
    {
      "inputs": [
        {
          "internalType": "bytes32",
          "name": "documentHash",
          "type": "bytes32"
        },
        {
          "internalType": "string",
          "name": "studentId",
          "type": "string"
        },
        {
          "internalType": "string",
          "name": "institutionName",
          "type": "string"
        }
      ],
      "name": "registerCertificateHash",
      "outputs": [],
      "stateMutability": "nonpayable",
      "type": "function"
    },
    {
      "inputs": [],
      "name": "renounceOwnership",
      "outputs": [],
      "stateMutability": "nonpayable",
      "type": "function"
    },
    {
      "inputs": [
        {
          "internalType": "address",
          "name": "newOwner",
          "type": "address"
        }
      ],
      "name": "transferOwnership",
      "outputs": [],
      "stateMutability": "nonpayable",
      "type": "function"
    },
    {
      "inputs": [
        {
          "internalType": "bytes32",
          "name": "documentHash",
          "type": "bytes32"
        }
      ],
      "name": "verifyCertificateHash",
      "outputs": [
        {
          "internalType": "bool",
          "name": "",
          "type": "bool"
        },
        {
          "internalType": "address",
          "name": "",
          "type": "address"
        },
        {
          "internalType": "uint256",
          "name": "",
          "type": "uint256"
        },
        {
          "internalType": "string",
          "name": "",
          "type": "string"
        },
        {
          "internalType": "string",
          "name": "",
          "type": "string"
        }
      ],
      "stateMutability": "view",
      "type": "function"
    }
  ],
  "transactionHash": "0xf76b87b91f176ce25580d3e31d39862eacf7f5b92a3cd1d436c11a69bec88457",
  "args": [
    "0x605f34A4D345de8c03214572cda476BeA237d445"
  ],
  "numDeployments": 4,
  "solcInputHash": "f5391ca690c03ba379d2c40e82ed9609",
  "bytecode": "0x608060405234801561001057600080fd5b50604051610b59380380610b5983398101604081905261002f916100be565b806001600160a01b03811661005e57604051631e4fbdf760e01b81526000600482015260240160405180910390fd5b6100678161006e565b50506100ee565b600080546001600160a01b038381166001600160a01b0319831681178455604051919092169283917f8be0079c531659141344cd1fd0a4f28419497f9722a3daafe3b4186f6b6457e09190a35050565b6000602082840312156100d057600080fd5b81516001600160a01b03811681146100e757600080fd5b9392505050565b610a5c806100fd6000396000f3fe608060405234801561001057600080fd5b50600436106100625760003560e01c806363fba98a14610067578063715018a61461007c5780638da5cb5b146100845780639744250e146100a2578063bedda47e146100c6578063f2fde38b146100ea575b600080fd5b61007a6100753660046106ab565b6100fd565b005b61007a61028b565b61008c61029f565b6040516100999190610728565b60405180910390f35b6100b56100b036600461073c565b6102ae565b60405161009995949392919061079b565b6100d96100d436600461073c565b61044b565b6040516100999594939291906107e8565b61007a6100f8366004610836565b61059a565b60008581526001602052604090206004015460ff16156101305760405163df1b8c5960e01b815260040160405180910390fd5b6040518060a00160405280336001600160a01b0316815260200142815260200185858080601f016020809104026020016040519081016040528093929190818152602001838380828437600092019190915250505090825250604080516020601f8601819004810282018101909252848152918101919085908590819084018382808284376000920182905250938552505060016020938401819052898352808452604092839020855181546001600160a01b0319166001600160a01b03909116178155938501519084015550820151600282019061020f9082610905565b50606082015160038201906102249082610905565b50608091909101516004909101805460ff1916911515919091179055604051339086907fc63c47519fe52d5e8fba6fd4c27ddf91093c57cc998f841f239fc24fa11a422b9061027c90889088908890889042906109ec565b60405180910390a35050505050565b6102936105e1565b61029d6000610613565b565b6000546001600160a01b031690565b6000818152600160208181526040808420815160a08101835281546001600160a01b0316815293810154928401929092526002820180548594859460609485948794918401916102fd9061087c565b80601f01602080910402602001604051908101604052809291908181526020018280546103299061087c565b80156103765780601f1061034b57610100808354040283529160200191610376565b820191906000526020600020905b81548152906001019060200180831161035957829003601f168201915b5050505050815260200160038201805461038f9061087c565b80601f01602080910402602001604051908101604052809291908181526020018280546103bb9061087c565b80156104085780601f106103dd57610100808354040283529160200191610408565b820191906000526020600020905b8154815290600101906020018083116103eb57829003601f168201915b50505091835250506004919091015460ff16151560209182015260808201518251918301516040840151606090940151919b929a50985091965090945092505050565b60016020819052600091825260409091208054918101546002820180546001600160a01b03909416939192916104809061087c565b80601f01602080910402602001604051908101604052809291908181526020018280546104ac9061087c565b80156104f95780601f106104ce576101008083540402835291602001916104f9565b820191906000526020600020905b8154815290600101906020018083116104dc57829003601f168201915b50505050509080600301805461050e9061087c565b80601f016020809104026020016040519081016040528092919081815260200182805461053a9061087c565b80156105875780601f1061055c57610100808354040283529160200191610587565b820191906000526020600020905b81548152906001019060200180831161056a57829003601f168201915b5050506004909301549192505060ff1685565b6105a26105e1565b6001600160a01b0381166105d5576000604051631e4fbdf760e01b81526004016105cc9190610728565b60405180910390fd5b6105de81610613565b50565b336105ea61029f565b6001600160a01b03161461029d573360405163118cdaa760e01b81526004016105cc9190610728565b600080546001600160a01b038381166001600160a01b0319831681178455604051919092169283917f8be0079c531659141344cd1fd0a4f28419497f9722a3daafe3b4186f6b6457e09190a35050565b60008083601f84011261067557600080fd5b5081356001600160401b0381111561068c57600080fd5b6020830191508360208285010111156106a457600080fd5b9250929050565b6000806000806000606086880312156106c357600080fd5b8535945060208601356001600160401b038111156106e057600080fd5b6106ec88828901610663565b90955093505060408601356001600160401b0381111561070b57600080fd5b61071788828901610663565b969995985093965092949392505050565b6001600160a01b0391909116815260200190565b60006020828403121561074e57600080fd5b5035919050565b6000815180845260005b8181101561077b5760208185018101518683018201520161075f565b506000602082860101526020601f19601f83011685010191505092915050565b851515815260018060a01b038516602082015283604082015260a0606082015260006107ca60a0830185610755565b82810360808401526107dc8185610755565b98975050505050505050565b60018060a01b038616815284602082015260a06040820152600061080f60a0830186610755565b82810360608401526108218186610755565b91505082151560808301529695505050505050565b60006020828403121561084857600080fd5b81356001600160a01b038116811461085f57600080fd5b9392505050565b634e487b7160e01b600052604160045260246000fd5b600181811c9082168061089057607f821691505b6020821081036108b057634e487b7160e01b600052602260045260246000fd5b50919050565b601f82111561090057806000526020600020601f840160051c810160208510156108dd5750805b601f840160051c820191505b818110156108fd57600081556001016108e9565b50505b505050565b81516001600160401b0381111561091e5761091e610866565b6109328161092c845461087c565b846108b6565b6020601f821160018114610966576000831561094e5750848201515b600019600385901b1c1916600184901b1784556108fd565b600084815260208120601f198516915b828110156109965787850151825560209485019460019092019101610976565b50848210156109b45786840151600019600387901b60f8161c191681555b50505050600190811b01905550565b81835281816020850137506000828201602090810191909152601f909101601f19169091010190565b606081526000610a006060830187896109c3565b8281036020840152610a138186886109c3565b915050826040830152969550505050505056fea2646970667358221220418a8596013065e8c0f08359bad91ae5a23ea6314b6adc5ffa86bceadb8c4d5b64736f6c634300081e0033",
  "devdoc": {
    "errors": {
      "OwnableInvalidOwner(address)": [
        {
          "details": "The owner is not a valid owner account. (eg. `address(0)`)"
        }
      ],
      "OwnableUnauthorizedAccount(address)": [
        {
          "details": "The caller account is not authorized to perform an operation."
        }
      ]
    },
    "kind": "dev",
    "methods": {
      "owner()": {
        "details": "Returns the address of the current owner."
      },
      "renounceOwnership()": {
        "details": "Leaves the contract without owner. It will not be possible to call `onlyOwner` functions. Can only be called by the current owner. NOTE: Renouncing ownership will leave the contract without an owner, thereby disabling any functionality that is only available to the owner."
      },
      "transferOwnership(address)": {
        "details": "Transfers ownership of the contract to a new account (`newOwner`). Can only be called by the current owner."
      }
    },
    "version": 1
  },
  "userdoc": {
    "kind": "user",
    "methods": {},
    "version": 1
  },
  "storageLayout": {
    "storage": [
      {
        "astId": 8,
        "contract": "contracts/CertificateRegistry.sol:CertificateRegistry",
        "label": "_owner",
        "offset": 0,
        "slot": "0",
        "type": "t_address"
      },
      {
        "astId": 201,
        "contract": "contracts/CertificateRegistry.sol:CertificateRegistry",
        "label": "certificateHashes",
        "offset": 0,
        "slot": "1",
        "type": "t_mapping(t_bytes32,t_struct(CertificateDoc)196_storage)"
      }
    ],
    "types": {
      "t_address": {
        "encoding": "inplace",
        "label": "address",
        "numberOfBytes": "20"
      },
      "t_bool": {
        "encoding": "inplace",
        "label": "bool",
        "numberOfBytes": "1"
      },
      "t_bytes32": {
        "encoding": "inplace",
        "label": "bytes32",
        "numberOfBytes": "32"
      },
      "t_mapping(t_bytes32,t_struct(CertificateDoc)196_storage)": {
        "encoding": "mapping",
        "key": "t_bytes32",
        "label": "mapping(bytes32 => struct CertificateRegistry.CertificateDoc)",
        "numberOfBytes": "32",
        "value": "t_struct(CertificateDoc)196_storage"
      },
      "t_string_storage": {
        "encoding": "bytes",
        "label": "string",
        "numberOfBytes": "32"
      },
      "t_struct(CertificateDoc)196_storage": {
        "encoding": "inplace",
        "label": "struct CertificateRegistry.CertificateDoc",
        "members": [
          {
            "astId": 187,
            "contract": "contracts/CertificateRegistry.sol:CertificateRegistry",
            "label": "registeredBy",
            "offset": 0,
            "slot": "0",
            "type": "t_address"
          },
          {
            "astId": 189,
            "contract": "contracts/CertificateRegistry.sol:CertificateRegistry",
            "label": "registeredAt",
            "offset": 0,
            "slot": "1",
            "type": "t_uint256"
          },
          {
            "astId": 191,
            "contract": "contracts/CertificateRegistry.sol:CertificateRegistry",
            "label": "studentId",
            "offset": 0,
            "slot": "2",
            "type": "t_string_storage"
          },
          {
            "astId": 193,
            "contract": "contracts/CertificateRegistry.sol:CertificateRegistry",
            "label": "institutionName",
            "offset": 0,
            "slot": "3",
            "type": "t_string_storage"
          },
          {
            "astId": 195,
            "contract": "contracts/CertificateRegistry.sol:CertificateRegistry",
            "label": "exists",
            "offset": 0,
            "slot": "4",
            "type": "t_bool"
          }
        ],
        "numberOfBytes": "160"
      },
      "t_uint256": {
        "encoding": "inplace",
        "label": "uint256",
        "numberOfBytes": "32"
      }
    }
  }
}