{
  "address": "0x10e1b70E2D4c1b6dA4b0aBee66A24fbFb4e8B19a",
  "abi": [
    {
      "inputs": [],
      "name": "ConsistencyCheckFailed",
      "type": "error"
    },
    {
      "inputs": [],
      "name": "GeminiChallengeInSubgroup",
      "type": "error"
    },
    {
      "inputs": [],
      "name": "ProofLengthWrong",
      "type": "error"
    },
    {
      "inputs": [
        {
          "internalType": "uint256",
          "name": "logN",
          "type": "uint256"
        },
        {
          "internalType": "uint256",
          "name": "actualLength",
          "type": "uint256"
        },
        {
          "internalType": "uint256",
          "name": "expectedLength",
          "type": "uint256"
        }
      ],
      "name": "ProofLengthWrongWithLogN",
      "type": "error"
    },
    {
      "inputs": [],
      "name": "PublicInputsLengthWrong",
      "type": "error"
    },
    {
      "inputs": [],
      "name": "ShpleminiFailed",
      "type": "error"
    },
    {
      "inputs": [],
      "name": "SumcheckFailed",
      "type": "error"
    },
    {
      "inputs": [
        {
          "internalType": "bytes",
          "name": "proof",
          "type": "bytes"
        },
        {
          "internalType": "bytes32[]",
          "name": "publicInputs",
          "type": "bytes32[]"
        }
      ],
      "name": "verify",
      "outputs": [
        {
          "internalType": "bool",
          "name": "verified",
          "type": "bool"
        }
      ],
      "stateMutability": "view",
      "type": "function"
    }
  ],
  "transactionHash": "0x3221c99ec91799d6d050a1895936bd607231f6b5dd91191313bb36ac4a9d1c7b",
  "args": [],
  "numDeployments": 1,
  "solcInputHash": "8e6a41f59078d126a6fa05048b186798",
  "bytecode": "0x61012060405234801561001157600080fd5b50620100006080819052601060a08190527f1a9cc93ce1c92576a0240fda74af8a650ada7e315e13b2365c7760769b1d2a8360c0819052606560e081905260038361005e6001602461008b565b610068919061008b565b610072919061008b565b61007d90600261008b565b61010052506100b292505050565b808201808211156100ac57634e487b7160e01b600052601160045260246000fd5b92915050565b60805160a05160c05160e05161010051615e1461015360003960008181610c7701528181610cdd0152612ebb0152600081816101b7015261091401526000610195015260008181605f01528181609801528181610107015281816101d901528181610a4701528181610bae01528181610c4d015281816115500152818161160d015281816116410152818161184c0152612bb5015260005050615e146000f3fe608060405234801561001057600080fd5b506004361061002b5760003560e01c8063ea50d0e414610030575b600080fd5b61004361003e366004615595565b610057565b604051901515815260200160405180910390f35b6000806100837f00000000000000000000000000000000000000000000000000000000000000006102f8565b905061009081602061567a565b85146100f2577f0000000000000000000000000000000000000000000000000000000000000000856100c383602061567a565b6040516359895a5360e01b81526004810193909352602483019190915260448201526064015b60405180910390fd5b60006100fc610406565b9050600061012b88887f000000000000000000000000000000000000000000000000000000000000000061041b565b90506010826040015161013e9190615691565b851461015d5760405163fa06659360e01b815260040160405180910390fd5b604051631ee2b3f360e21b815260009073220aF67fc4614e6Cdf7409754c68D37072B93dAd90637b8acfcc906102019085908b908b907f0000000000000000000000000000000000000000000000000000000000000000907f0000000000000000000000000000000000000000000000000000000000000000907f000000000000000000000000000000000000000000000000000000000000000090600401615819565b610be060405180830381865af415801561021f573d6000803e3d6000fd5b505050506040513d601f19601f820116820180604052508101906102439190615b2f565b905061029487878080602002602001604051908101604052809392919081815260200183836020028082843760009201919091525050855185516060810151608090910151919350915060016108bb565b815160a001526102a48282610a28565b6102c1576040516313f8744360e31b815260040160405180910390fd5b6102cc828483610c37565b6102e9576040516352ec174560e11b815260040160405180910390fd5b50600198975050505050505050565b600080600261030960016008615bdf565b610313919061567a565b90506103216002600361567a565b61032b9082615bdf565b9050600161033a60098561567a565b610344919061567a565b61034e9082615bdf565b9050600161035d816029615bdf565b610367919061567a565b6103719082615bdf565b905061037f6001600261567a565b6103899082615bdf565b905061039660018461567a565b6103a09082615bdf565b90506103ae6001600461567a565b6103b89082615bdf565b905060026103c7600185615691565b6103d1919061567a565b6103db9082615bdf565b90506103e860028061567a565b6103f29082615bdf565b90506103ff601082615bdf565b9392505050565b61040e6150b1565b610416611c4e565b905090565b61042361523e565b6000805b601081101561048657610453868387610441602083615bdf565b9261044e93929190615bf2565b612588565b8351826010811061046657610466615c1c565b60200201818152505060208261047c9190615bdf565b9150600101610427565b506104aa858286610498604083615bdf565b926104a593929190615bf2565b61259c565b60208301526104ba604082615bdf565b90506104cd858286610498604083615bdf565b6040808401919091526104e09082615bdf565b90506104f3858286610498604083615bdf565b6060830152610503604082615bdf565b9050610516858286610498604083615bdf565b6080830152610526604082615bdf565b9050610539858286610498604083615bdf565b60c0830152610549604082615bdf565b905061055c858286610498604083615bdf565b60e083015261056c604082615bdf565b905061057f858286610498604083615bdf565b60a083015261058f604082615bdf565b90506105a2858286610498604083615bdf565b6101008301526105b3604082615bdf565b90506105c6858286610498604083615bdf565b6101208301526105d7604082615bdf565b90506105ea858286610498604083615bdf565b610140830151526105fc604082615bdf565b905061060f858286610441602083615bdf565b610160830152610620602082615bdf565b905060005b838110156106a05760005b60098110156106975761064a878488610441602083615bdf565b84610180015183601c811061066157610661615c1c565b6020020151826009811061067757610677615c1c565b60200201818152505060208361068d9190615bdf565b9250600101610630565b50600101610625565b5060005b6106b060016029615bdf565b8110156106ff576106c8868387610441602083615bdf565b836101c0015182602a81106106df576106df615c1c565b6020020181815250506020826106f59190615bdf565b91506001016106a4565b50610711858286610441602083615bdf565b6101a0830152610722602082615bdf565b9050610735858286610498604083615bdf565b6101408301516020015261074a604082615bdf565b905061075d858286610498604083615bdf565b61014083015160026020020152610775604082615bdf565b905060005b610785600185615691565b8110156107ce5761079d868387610498604083615bdf565b836101e0015182601b81106107b4576107b4615c1c565b60200201526107c4604083615bdf565b915060010161077a565b5060005b83811015610822576107eb868387610441602083615bdf565b83610200015182601c811061080257610802615c1c565b6020020181815250506020826108189190615bdf565b91506001016107d2565b5060005b600481101561087757610840868387610441602083615bdf565b836102200151826004811061085757610857615c1c565b60200201818152505060208261086d9190615bdf565b9150600101610826565b50610889858286610498604083615bdf565b61024083015261089a604082615bdf565b90506108ad858286610498604083615bdf565b610260830152509392505050565b6000600180826108e9866108e4896108df6108da8a6310000000615bdf565b612621565b61263b565b612658565b90506000610908876109038a6108df6108da8b6001615bdf565b612673565b905060005b61093860107f0000000000000000000000000000000000000000000000000000000000000000615691565b8110156109a65760006109638c838151811061095657610956615c1c565b602002602001015161269e565b9050610973866108df8684612658565b9550610983856108df8584612658565b945061098f848b612658565b935061099b838b612673565b92505060010161090d565b5060005b6010811015610a0f5760008a82601081106109c7576109c7615c1c565b602002015190506109dc866108df8684612658565b95506109ec856108df8584612658565b94506109f8848b612658565b9350610a04838b612673565b9250506001016109aa565b50610a1a84846126b5565b9a9950505050505050505050565b600080610a3e836060015185610160015161263b565b9050600160005b7f0000000000000000000000000000000000000000000000000000000000000000811015610b3457600086610180015182601c8110610a8657610a86615c1c565b60200201518051909150600090610aa5908360015b6020020151612658565b9050848114610ac7576040516313f8744360e31b815260040160405180910390fd5b6000876080015184601c8110610adf57610adf615c1c565b60200201519050610af083826126c4565b9550610b24856108df60016108e4856108df8e604001518b601c8110610b1857610b18615c1c565b60200201516001612673565b9450505050806001019050610a45565b50610b3d615323565b60005b6029811015610b8e576101c0870151610b5a600183615bdf565b602a8110610b6a57610b6a615c1c565b6020020151828260298110610b8157610b81615c1c565b6020020152600101610b40565b506000610ba582876000015188602001518661282c565b9050600160025b7f0000000000000000000000000000000000000000000000000000000000000000811015610c0257610bf882896080015183601c8110610bee57610bee615c1c565b602002015161263b565b9150600101610bac565b50610c28610c15836108df600185612673565b6108e48a6101a001518a6060015161263b565b94909414979650505050505050565b6000610c41615342565b6000610c718460c001517f00000000000000000000000000000000000000000000000000000000000000006128a6565b905060007f00000000000000000000000000000000000000000000000000000000000000006001600160401b03811115610cad57610cad6159d5565b604051908082528060200260200182016040528015610cd6578160200160208202803683370190505b50905060007f00000000000000000000000000000000000000000000000000000000000000006001600160401b03811115610d1357610d136159d5565b604051908082528060200260200182016040528015610d4c57816020015b610d396153bd565b815260200190600190039081610d315790505b509050610d80610d7b87610100015185600081518110610d6e57610d6e615c1c565b6020026020010151612673565b612971565b84610120018181525050610db6610d7b87610100015185600081518110610da957610da9615c1c565b6020026020010151612658565b610140850181905261012085015160e0880151610dd7926108e4919061263b565b845260c0860151610e0790610deb90612971565b6108df8661012001516109038a60e0015189610140015161263b565b602085015281516001908390600090610e2257610e22615c1c565b60200260200101818152505087610240015181600081518110610e4757610e47615c1c565b6020908102919091010152600160a0850152600060c08501528351610e6b906129e8565b60408501526020840151610e7e906129e8565b606085015260015b610e9260016024615bdf565b8111610f3357610eaa85604001518660a0015161263b565b838281518110610ebc57610ebc615c1c565b602002602001018181525050610f058560c001516108e48b6101c00151600185610ee69190615691565b602a8110610ef657610ef6615c1c565b60200201518860a0015161263b565b60c086015260a08086015190880151610f1e919061263b565b60a0860152610f2c81615c32565b9050610e86565b5060005b600581101561100f576000610f4d601e83615bdf565b90506000610f5d60016024615bdf565b610f679084615bdf565b9050610f98858381518110610f7e57610f7e615c1c565b60200260200101516108e489606001518a60a0015161263b565b858381518110610faa57610faa615c1c565b602002602001018181525050610fe78760c001516108e48d6101c0015184602a8110610fd857610fd8615c1c565b60200201518a60a0015161263b565b60c088015260a080880151908a0151611000919061263b565b60a08801525050600101610f37565b5087602001518160018151811061102857611028615c1c565b602002602001018190525086606001518160028151811061104b5761104b615c1c565b602002602001018190525086608001518160038151811061106e5761106e615c1c565b60200260200101819052508660a001518160048151811061109157611091615c1c565b60200260200101819052508660c00151816005815181106110b4576110b4615c1c565b60200260200101819052508660e00151816006815181106110d7576110d7615c1c565b6020026020010181905250866101000151816007815181106110fb576110fb615c1c565b60200260200101819052508661012001518160088151811061111f5761111f615c1c565b60200260200101819052508661014001518160098151811061114357611143615c1c565b602002602001018190525086610160015181600a8151811061116757611167615c1c565b6020026020010181905250866101c0015181600b8151811061118b5761118b615c1c565b602002602001018190525086610180015181600c815181106111af576111af615c1c565b6020026020010181905250866101a0015181600d815181106111d3576111d3615c1c565b6020026020010181905250866101e0015181600e815181106111f7576111f7615c1c565b602002602001018190525086610200015181600f8151811061121b5761121b615c1c565b60200260200101819052508661022001518160108151811061123f5761123f615c1c565b60200260200101819052508661024001518160118151811061126357611263615c1c565b60200260200101819052508661026001518160128151811061128757611287615c1c565b6020026020010181905250866102800151816013815181106112ab576112ab615c1c565b6020026020010181905250866102a00151816014815181106112cf576112cf615c1c565b6020026020010181905250866102c00151816015815181106112f3576112f3615c1c565b6020026020010181905250866102e001518160168151811061131757611317615c1c565b60200260200101819052508661030001518160178151811061133b5761133b615c1c565b60200260200101819052508661032001518160188151811061135f5761135f615c1c565b60200260200101819052508661034001518160198151811061138357611383615c1c565b602002602001018190525086610360015181601a815181106113a7576113a7615c1c565b602002602001018190525086610380015181601b815181106113cb576113cb615c1c565b6020026020010181905250866103a0015181601c815181106113ef576113ef615c1c565b6020026020010181905250866103c0015181601d8151811061141357611413615c1c565b6020026020010181905250876040015181601e8151811061143657611436615c1c565b6020026020010181905250876060015181601f8151811061145957611459615c1c565b602002602001018190525087608001518160208151811061147c5761147c615c1c565b60200260200101819052508760a001518160218151811061149f5761149f615c1c565b6020026020010181905250876101200151816022815181106114c3576114c3615c1c565b6020026020010181905250876101000151816023815181106114e7576114e7615c1c565b60200260200101819052508760c001518160248151811061150a5761150a615c1c565b60200260200101819052508760e001518160258151811061152d5761152d615c1c565b6020026020010181905250600061157487608001518660c001518b6102000151877f00000000000000000000000000000000000000000000000000000000000000006129fb565b905061159f8160008151811061158c5761158c615c1c565b602002602001015186610120015161263b565b608086018190526102008a01515160e08901516115d092916108e4916115c5919061263b565b88610140015161263b565b608086015260e08701516115e390612b5d565b60a086015260006115f660016024615bdf565b611601906001615bdf565b905060005b61163160017f0000000000000000000000000000000000000000000000000000000000000000615691565b81101561184457600061166560017f0000000000000000000000000000000000000000000000000000000000000000615691565b8210159050806117d557611699610d7b8b6101000151898560016116899190615bdf565b81518110610d6e57610d6e615c1c565b6101208901526101008a01516116c990610d7b90896116b9866001615bdf565b81518110610da957610da9615c1c565b61014089015260a08801516101208901516116e4919061263b565b61016089015260a088015160e08b015161170c916117019161263b565b89610140015161263b565b610180890181905261172f90611721906129e8565b6108e48a61016001516129e8565b8661173a8486615bdf565b8151811061174a5761174a615c1c565b60200260200101818152505060006117848961018001518e61020001518560016117749190615bdf565b601c8110610bee57610bee615c1c565b90506117be816108e48b6101600151888760016117a19190615bdf565b815181106117b1576117b1615c1c565b602002602001015161263b565b90506117ce896080015182612658565b60808a0152505b6117f46117ea8960a001518c60e0015161263b565b8b60e0015161263b565b60a08901526101e08c015182601b811061181057611810615c1c565b6020020151856118208486615bdf565b8151811061183057611830615c1c565b602090810291909101015250600101611606565b5061187060017f0000000000000000000000000000000000000000000000000000000000000000615691565b61187a9082615bdf565b905061189a6118928961010001518a60c00151612673565b6001906126b5565b60e08701515261010088015160c08901516118de9161189291610903907f07b0c561a6148404f086204a9f36ffb0617942546750f230c893619174a57a769061263b565b60e0878101805160200192909252815180516040909101529051805160609091015260a087015190890151611920916119169161263b565b8960e0015161263b565b60a087015260005b60048110156119d057600061195b8860e00151836004811061194c5761194c615c1c565b60200201518960a0015161263b565b9050611966816129e8565b886101000151836004811061197d5761197d615c1c565b602002015260a088015160e08b0151611996919061263b565b8860a00181815250506119c288608001516108e4838f61022001518660048110610bee57610bee615c1c565b608089015250600101611928565b506101008601515184518590839081106119ec576119ec615c1c565b60209081029190910181019190915261010087015190810151611a10916002610a9b565b84611a1c836001615bdf565b81518110611a2c57611a2c615c1c565b60209081029190910101526101008601516060015184611a4d836002615bdf565b81518110611a5d57611a5d615c1c565b60200260200101818152505060005b6003811015611ac1578a61014001518160038110611a8c57611a8c615c1c565b60200201518483611a9c81615c32565b945081518110611aae57611aae615c1c565b6020908102919091010152600101611a6c565b506040518060400160405280600181526020016002815250838281518110611aeb57611aeb615c1c565b60200260200101819052508560800151848280611b0790615c32565b935081518110611b1957611b19615c1c565b602002602001018181525050611b438a61022001518960c001518a608001518d6101a00151612b69565b611b605760405163a2a2ac8360e01b815260040160405180910390fd5b60008a6102600151905080848381518110611b7d57611b7d615c1c565b6020026020010181905250886101000151858381518110611ba057611ba0615c1c565b602002602001018181525050611bb46153d7565b611bbe8587612eb1565b8152611bc982612faa565b602082018190528c518251600092611be2929190612ff2565b9050600080611bf48f60000151613085565b91509150611c0182613146565b611c0a81613146565b8351611c179083856131ea565b84526020840151611c299082856131ea565b602085018190528451611c3b91613219565b9f9e505050505050505050505050505050565b611c566150b1565b50604080516103e0810182526201000081526010602080830191909152606582840152825180840184527f0e67d77ab4098613db339f856c69657d5d9d66b7b7d4020caf2a77b635b5e24581527f0e946ab9576d5bfb6b8dcd5730a438de66a49e95e8434ae878ac95dd5483006a818301526060830152825180840184527f08379b4bccd0ab5853c4482509dc1b3ce77e963a635efa74ad7386edb2c00ec981527f0b491d4cc415778c4f389b3d09402405777d2d2fc458aece45a0165e73448a81818301526080830152825180840184527f051c5d84aac2cb910727863388085bb60e651bd171705b2a8eeeea742e96739b81527f2a19a747ea37ce86584e519e5f9537611dbcc1d3c9d996d2fb79136b56f287ca8183015260a0830152825180840184527f0b0a7911a3e6d046d55b9e4cf47b0dda8cba6d4dfbf05fe5840fc7d33da1ab1e81527f03e55262b01ab8bc36f35949e1e0d1857c2c06a0973407faa941b8f2aad226d48183015260c0830152825180840184527f03031a8414567f129dc22944ae59a838e2b3de636aebc854de9d44b4a18764a781527f177a41bf94f445e909ff312ccbcd638ddfb8009de7293b14e7cd09e1f31ac5008183015260e0830152825180840184527f06054bddda9322ba2b6c1c9d6489f0d0546d4952b4832c2efb731a355d6ccc9b81527f28654d64d352a68e1b0cef0a1f042fbacbe77d658c3fd6e4fa722ed28098a11081830152610100830152825180840184527f1dfeef16ac6a9daabc4b00e7b4fc9f4f00f6344ec2a80a7e601b3b1ae7ec0cd681527f1888c0249ac7a8e36f14f56ddf4321af43c635321e0dea7541972b0b90d39d3781830152610120830152825180840184527f0caf0f9fa49849f628cc6c02832a26444009de6de8c6b279f13a193b8cd3fbaf81527f1341c8908fa19245103e3cacadf0f4d7bf0799a244e3b9e27a6a786dbc11024281830152610140830152825180840184527f24817d918127b96e116797b1188b768e34b4eee25c0e294abd9111f724ed6a1781527f2331c7a4d4bd2057bba6ee417926787ede0d1f327065aa7f4a07cdaf83efe00281830152610160830152825180840184527f190b24ed4cc2575a1da363d47db2437d125bb6cdad9b7a42c22e234f9f0220fa81527f1ec59a4d1c3fe928f9d9b46480be4a699d577a67abcc08951af8944e5889796d81830152610180830152825180840184527f07994b32df7d884216efb8b6873236c7ad6d3fdcb5eecada5bc344ffca310c1f81527f0179a613410affe965cb20e3933f74318c14e8c05021c5efc8fd9eb9f16bddba818301526101a0830152825180840184527f1b3f9ae13828decc2d4371d825442466ad126247c2f8512b5d3a97a07c1a040481527f2b414f20cdaea6500393a95107a0e22fd02af442a2b49f626288bffbc03b7bc0818301526101c0830152825180840184527f01521349814c418c79c58978fbb06f3907839487babaa286244cf1d119ddc0a181527f18c82171ada65a09c15e9d83d19b9cce9006ad5aedb904ddcc2b1e4f96ca659e818301526101e0830152825180840184527f1f9ffbe52cf93087a8f6df50e1c672d3fb5651275b8111a3240cbc19b2015d8f81527f1f0bf840b047da8f47382e53ef52aa04333f27755386d44342de584f31de9a3781830152610200830152825180840184527f2745dcf25e37a90b8c143b3c874b3a1f46da754751c9ea0770e8f151231463aa81527f2222e1e9a54c400ec19e4ed209501a65302903d547be5618bfc73613908e560681830152610220830152825180840184527f0e1968abfbe7b4f046ed5eb789bb57d5f7b8f5c5dfad20363897a2a35c4cc49581527f27692f0b2a73f5d47ff70423fb74b95fc2a30e198c0af888da21c730a57ec0b781830152610240830152825180840184527f144055868005b73284f90d215e02e9ae2bdfa29944bca181dc86380b3ba2ddb181527f0ca347122851d6b120356467c91f5260c42dbee4f1728a554cda2d7411cb873181830152610260830152825180840184527f206900e86c9b44f980b124ad0d061fe28bff83daf846921a011ea4f807e8b4f381527f20a5d7233e59b83847a53342e85403b1776f50dd7456c3065b9654a785dec2de81830152610280830152825180840184527f2de11532c64f51f2cea4798f43ae109fa37a66cfe52f84337146a851794ff79f81527f07d616830f7757971deb642978f33292e3ba30199bb28321e5a9ac92a914da6e818301526102a0830152825180840184527f028519d6fd95deee912310346a1209632571abfea0ee5e93c9d7ae61390d8b7f81527f2e1932e0964743887a1eed4d4ba77ab340fba8623b7fc22ee8012290d9724a3c818301526102c0830152825180840184527f222428db9fae1a1b6681221133a3ee7195ea68f44d065d55dada56864ec1b75e81527edd46cddbcbb3d29c2f123e7711d885bd7d85017711a0bc43bb96a1db28cbf3818301526102e0830152825180840184527f2bc19108e6fec5f148526b5e670b381ff70ef896e0f960c7840a9b6fc1f8dbf581527f2362887f11cd8f6b86e625770669bd5074388e516bf629503fa24ba86a04b6d881830152610300830152825180840184527f2c08d4d73d6e81dd907037591de13bac52d1958aa932ddcbd8fc3cd232a5149081527f2e41f0a3311b690b1708f7417b61a3e8660b6237d4ff8e99bc1a53697a41fca681830152610320830152825180840184527f1708c82a334db5cf7bb7cb32907994ab0acf550f3994abecf91a58a927f681c381527f0a8b4d30c7ae4c64db86431021b04e15e7a8c81214f9bb894c93f50026c258dc81830152610340830152825180840184527f2db5412df862a4bee09bca2d21991535a90769d5a2149f9ae97c453ff5622f6e81527f16f4747a0632c799c26c2e5f627ace7fb1b66358376e38accbf00e67f735020681830152610360830152825180840184527f0db4fa6fbb88e7c0ee5c92d39895b378d9b8546cd96ddf773d257afcad7d2dce81527f2408caf7a5703d9fbccbe0b98c5f32b6ac113e23d5d1c29c4eac0ef4c67618298183015261038083015282518084018452600181526002818301526103a083015282518084019093527f095c5b302d44539f088fc74033d4c0293b3e1c05626cf12f2cea561104c378fc83527f23c733da6849aac9a50598c4f655c882caa19e247f0c02f5b7b81baf4de93b47908301526103c081019190915290565b60006103ff6125978385615c4b565b61269e565b6125a46153bd565b6040805180820190915280600080516020615d5f8339815191526125cc602060008789615bf2565b6125d591615c4b565b6125df9190615c69565b8152602090810190600080516020615d5f83398151915290612605906040908789615bf2565b61260e91615c4b565b6126189190615c69565b90529392505050565b6000600080516020615d9f833981519152825b0692915050565b6000600080516020615d9f83398151915282840990505b92915050565b6000600080516020615d9f8339815191528284089392505050565b6000600080516020615d9f83398151915282600080516020615d9f8339815191520384089392505050565b6000600080516020615d9f83398151915282612634565b60006103ff836108df84612971565b600080604051806101200160405280619d808152602001600080516020615dbf83398151915281526020016105a08152602001600080516020615d3f83398151915281526020016102408152602001600080516020615d3f83398151915281526020016105a08152602001600080516020615dbf8339815191528152602001619d80815250905060006001905060005b60098110156127755761276b826108df8784612673565b9150600101612754565b5061277e6153ea565b60005b60098110156127d0576127b1610d7b8583600981106127a2576127a2615c1c565b60200201516108df8985612673565b8282600981106127c3576127c3615c1c565b6020020152600101612781565b5060005b60098110156128175761280d856108e48984600981106127f6576127f6615c1c565b6020020151858560098110610bee57610bee615c1c565b94506001016127d4565b50612822848361263b565b9695505050505050565b6000612836615409565b612841868285613412565b61284d868683866135c3565b612859868683866137b4565b6128648682856139e6565b61286f868285613be4565b61287b86868386613f49565b61288686828561440b565b612891868285614828565b61289c868285614bfa565b6128228185614f07565b60606000826001600160401b038111156128c2576128c26159d5565b6040519080825280602002602001820160405280156128eb578160200160208202803683370190505b509050838160008151811061290257612902615c1c565b602090810291909101015260015b838110156129695761294482612927600184615691565b8151811061293757612937615c1c565b6020026020010151612b5d565b82828151811061295657612956615c1c565b6020908102919091010152600101612910565b509392505050565b600080829050600060405160208152602080820152602060408201528260608201526002600080516020615d9f833981519152036080820152600080516020615d9f83398151915260a08201526020600060c08360055afa806129d357600080fd5b50600051608091909101604052949350505050565b600080516020615d9f8339815191520390565b60606000826001600160401b03811115612a1757612a176159d5565b604051908082528060200260200182016040528015612a40578160200160208202803683370190505b509050825b8015612b5257600085612a59600184615691565b81518110612a6957612a69615c1c565b60200260200101519050600089600184612a839190615691565b601c8110612a9357612a93615c1c565b602002015190506000612aef612ab3612aac858d61263b565b600261263b565b6109038b612ac2600189615691565b601c8110612ad257612ad2615c1c565b60200201516108df612ae9886108df60018a612673565b87612673565b9050612b10816108df610d7b612b0a876108df600189612673565b86612658565b99508990508085612b22600187615691565b81518110612b3257612b32615c1c565b60200260200101818152505050505080612b4b90615c8b565b9050612a45565b509695505050505050565b6000612652828361263b565b6000600181612b83612b7d87610100614f60565b83612673565b905080612ba35760405163835eb8f760e01b815260040160405180910390fd5b612bab615428565b805183905260005b7f0000000000000000000000000000000000000000000000000000000000000000811015612c98576000612be882600961567a565b612bf3906001615bdf565b9050848360000151826101008110612c0d57612c0d615c1c565b60200201526000612c1f826001615bdf565b90505b612c2d600983615bdf565b811015612c8e578351612c6d90612c45600184615691565b6101008110612c5657612c56615c1c565b60200201518a85601c8110610bee57610bee615c1c565b8451826101008110612c8157612c81615c1c565b6020020152600101612c22565b5050600101612bb3565b50608081018390526000602082018190525b610100811015612d9957612ccb612cc583608001518a61263b565b85612673565b8260a00151826101008110612ce257612ce2615c1c565b602002015260a0820151612d0c90826101008110612d0257612d02615c1c565b6020020151612971565b8260a00151826101008110612d2357612d23615c1c565b602002018181525050612d6a82602001516108e48460000151846101008110612d4e57612d4e615c1c565b60200201518560a00151856101008110610bee57610bee615c1c565b60208301526080820151612d8c90600080516020615d7f83398151915261263b565b6080830152600101612caa565b506000612dab836108df610100612971565b9050612dbb82602001518261263b565b602083015260a0820151612dd79060005b60200201518261263b565b604083015260a0820151612e0390612df26001610100615691565b6101008110612dcc57612dcc615c1c565b60608301526040820151612e19908a6002610bee565b60c08301819052612e67906108e4612e3f8b600080516020615d7f833981519152612673565b60208d015160408e01516108df91612e5691612673565b8e516020890151610903919061263b565b60c083018190526060830151612e9c91612e90916108e4906108df8e600260200201518c612673565b610903858c6003610bee565b60c08301819052159998505050505050505050565b612eb96153bd565b7f000000000000000000000000000000000000000000000000000000000000000060005b81811015612f0f57612f07858281518110612efa57612efa615c1c565b6020026020010151613146565b600101612edd565b50604051600190815b60018401811015612f745760208102870160208202870181515160408501528151602001516060850152805160808501525050604080830160606040850160075afa8316925060408260808460065afa90921691600101612f18565b5080518452602081015160208501525080612fa2576040516352ec174560e11b815260040160405180910390fd5b505092915050565b612fb26153bd565b600080516020615d5f8339815191528260200151600080516020615d5f833981519152612fdf9190615691565b612fe99190615c69565b60208301525090565b600080600061300086613085565b9150915061300c615471565b82518152602080840151818301528251604080840191909152838201516060840152875160808401528782015160a0840152865160c08401528682015160e08401525161307a9161305f91849101615ca2565b6040516020818303038152906040528051906020012061269e565b979650505050505050565b61308d6153bd565b6130956153bd565b82516020808501516040860151606087015160cc90811b608892831b604494851b90961795909517949094178652608087015160a088015160c089015160e08a0151871b90841b91851b9092171717868401526101008701516101208801516101408901516101608a0151871b90841b91851b909217171785526101808701516101a08801516101c08901516101e09099015190951b9790911b9390911b1791909117939093179281019290925291565b805160208201516000600080516020615d5f833981519152838009600080516020615d5f8339815191526003600080516020615d5f83398151915283870908600080516020615d5f83398151915284850914915050806131e45760405162461bcd60e51b8152602060048201526019602482015278706f696e74206973206e6f74206f6e2074686520637572766560381b60448201526064016100e9565b50505050565b6131f26153bd565b6131fa6153bd565b6132048386614fc7565b9050613210818561501e565b95945050505050565b81516020808401518351848301516040805194850195909552938301919091527f198e9393920d483a7260bfb731fb5d25f1aa493335a9e71297e485b7aef312c260608301527f1800deef121f1e76426a00665e5c4479674322d4f75edadd46debd5cd992f6ed60808301527f090689d0585ff075ec9e99ad690c3395bc4b313370b38ef355acdadcd122975b60a08301527f12c85ea5db8c6deb4aab71808dcb408fe3d1e7690c43d37b4ce6cc0166fa7daa60c083015260e08201526101008101919091527f260e01b251f6f1c7e7ff4e580791dee8ea51d87a358e038b4efe30fac09383c16101208201527f0118c4d5b837bcc2bc89b5b398b5974e9f5944073b32078b7e231fec938883b06101408201527f04fc6369f7110fe3d25156c1bb9a72859cf2a04641f99ba4ee413c80da6a5fe46101608201527f22febda3c0c0632a56475b4214e5615e11e6dd3f96e6cea2854a87d4dacc5e5561018082015260009081906101a001604051602081830303815290604052905060008060086001600160a01b0316836040516133b19190615cd7565b600060405180830381855afa9150503d80600081146133ec576040519150601f19603f3d011682016040523d82523d6000602084013e6133f1565b606091505b50915091508180156128225750808060200190518101906128229190615d06565b600061341f846007615080565b90507f183227397098d014dc2822db40c0ac2e9419f4243cdcb848a1f0fac9f8000000600061348261347c613455856003612673565b6108df6134716134668b6000615080565b6108df8c601d615080565b6108df8b601c615080565b8361263b565b90506135036134f86134df6134c66134ad856108e46134a28d6002615080565b6108df8e601c615080565b6108e46134bb8c6003615080565b6108df8d601d615080565b6108e46134d48b6004615080565b6108df8c601e615080565b6108e46134ed8a6005615080565b6108df8b601f615080565b6108e4886001615080565b9050613522816108e4613517866001612673565b6108df8a6027615080565b905061352e818461263b565b905061353a818561263b565b8552506000905061357661356b61356061355588601c615080565b6108e489601f615080565b610903886024615080565b6108e4876000615080565b9050613587816108df846002612673565b9050613598816108df846001612673565b90506135a4818361263b565b90506135b0818461263b565b9050808460015b60200201525050505050565b60008060006135fb6135f16135d989601c615080565b6108e46135e78b6012615080565b8a6060015161263b565b8760800151612658565b9050613634816108df61362a6136128b601d615080565b6108e46136208d6013615080565b8c6060015161263b565b8960800151612658565b9050613659816108df61362a61364b8b601e615080565b6108e46136208d6014615080565b905061367e816108df61362a6136708b601f615080565b6108e46136208d6015615080565b9250600090506136a36135f161369589601c615080565b6108e46135e78b600e615080565b90506136c8816108df61362a6136ba8b601d615080565b6108e46136208d600f615080565b90506136ed816108df61362a6136df8b601e615080565b6108e46136208d6010615080565b9050613712816108df61362a6137048b601f615080565b6108e46136208d6011615080565b91506000905061373a613734613729896020615080565b6108e48a601a615080565b8461263b565b905061376f816109036137696137518b6028615080565b6108e461375f8d601b615080565b8c60a0015161263b565b8561263b565b905061377b818561263b565b604086015250600061379f61376961379489601b615080565b6108df8a6028615080565b9050808560035b602002015250505050505050565b6000806138136137fb6137e36137ce61362a8a6016615080565b6108e46137dc8b6017615080565b8a5161263b565b6108e46137f18a6018615080565b896020015161263b565b6108e4613809896019615080565b886040015161263b565b9150600061384b61383261382889601c615080565b8860800151612658565b6108e46138408a6003615080565b6108df8b6024615080565b9050600061387661385d89601d615080565b6108e461386b8b6000615080565b6108df8c6025615080565b905060006138a16138888a601e615080565b6108e46138968c6001615080565b6108df8d6026615080565b90506138e16138c96138bb856108e4868d6000015161263b565b6108e4848c6020015161263b565b6108e46138d78c6004615080565b8b6040015161263b565b935050505060006138f6613734886021615080565b90506000613908613734896021615080565b9050600061394161392861391d8b6023615080565b6108e48c6006615080565b6109036139368c6023615080565b6108df8d6006615080565b90506000613960612b7d613955878961263b565b6108df8d6021615080565b905061396c818861263b565b905060006139956139876139818d6006615080565b8761263b565b6109036139818e6022615080565b905060006139a48c6023615080565b905060006139b5612b7d838461263b565b60808c0185905260a08c0184905290506139cf818b61263b565b8b6006602002015250505050505050505050505050565b60006139f460006001612673565b90506000613a0460006002612673565b90506000613a1460006003612673565b90506000613a31613a2688601d615080565b61090389601c615080565b90506000613a4e613a4389601e615080565b6109038a601d615080565b90506000613a6b613a608a601f615080565b6109038b601e615080565b90506000613a88613a7d8b6024615080565b6109038c601f615080565b905083613a99816108df818b612658565b9050613aa9816108df878a612658565b9050613ab9816108df8789612658565b9050613aca816108df8d6008615080565b9050613ad6818a61263b565b60e08b01525082613aeb816108df818b612658565b9050613afb816108df868a612658565b9050613b0b816108df8689612658565b9050613b1c816108df8d6008615080565b9050613b28818a61263b565b6101008b01525081613b3e816108df818b612658565b9050613b4e816108df858a612658565b9050613b5e816108df8589612658565b9050613b6f816108df8d6008615080565b9050613b7b818a61263b565b6101208b01525080613b91816108df818b612658565b9050613ba1816108df848a612658565b9050613bb1816108df8489612658565b9050613bc2816108df8d6008615080565b9050613bce818a61263b565b610140909a019990995250505050505050505050565b613c246040518060e00160405280600081526020016000815260200160008152602001600081526020016000815260200160008152602001600081525090565b613c2f84601d615080565b8152613c3c84601e615080565b6020820152613c4c846024615080565b6040820152613c5c846027615080565b6060820152613c6c846026615080565b6080820152613c7c846025615080565b60a08201526000613c8e856002615080565b90506000613c9d866000615080565b90506000613cb384604001518560000151612673565b90506000613cc98560200151866020015161263b565b60608601519091508690600090613ce0908061263b565b90506000613cff613cf989602001518a6060015161263b565b8861263b565b90506000613d1f613d188a60a001518b60400151612658565b8a51612658565b9050613d2e613981828861263b565b9050613d55613d4f613d49613d438487612673565b88612673565b84612658565b83612658565b9050613d7d613d72613d67838761263b565b6108df8f6009615080565b6108df60018a612673565b6101608c01525050505060208501516080860151600091613d9d91612658565b90506000613dbc613db288606001518861263b565b8860200151612673565b90506000613de2613dcd848761263b565b6108e46137698b60a001518c60000151612673565b9050613e0a613dff613df4838c61263b565b6108df8e6009615080565b6108df600189612673565b6101808b01525060009150613e2c9050613e25836011612658565b875161263b565b90506000613e3a8384612658565b9050613e468182612658565b90506000613e5583600961263b565b9050613e7f613e79613734613e728b60a001518c60000151612658565b8b51612658565b82612673565b60c08901819052600090613e9b90613cf990613d67908d61263b565b9050613eae8b600b602002015182612658565b6101608c01525050865160009250613ed69150613e2590613ecf9080612658565b8851612658565b90506000613f18613ef3836108df8a600001518b60a00151612673565b602089015161090390613f069080612658565b6108df8b602001518c60800151612658565b9050613f3589600c60200201516108e4613cf9613d67858d61263b565b89600c602002015250505050505050505050565b613fc2604051806101e001604052806000815260200160008152602001600081526020016000815260200160008152602001600081526020016000815260200160008152602001600081526020016000815260200160008152602001600081526020016000815260200160008152602001600081525090565b613fda613fd086601e615080565b856040015161263b565b808252613ff9906108e4613fef88601d615080565b876020015161263b565b80825261400e906108e4613e2588601c615080565b808252614020906108e4876001615080565b808252602082018190526140399061090387601f615080565b8152614054614049866024615080565b61090387601c615080565b6080820152614072614067866027615080565b61090387601f615080565b6060820152608081015161408b906108df816001612673565b6101c082015260808101516140cc906140c2906140bb906108df6001600080516020615d9f833981519152615691565b6001612658565b826060015161263b565b60a08201819052614102906140f4906108df6140e9896002615080565b6108df8a6003615080565b6108df61376988600a615080565b83600e60200201526101c0810151614126906140f4906108df6140e9896002615080565b6101e0840152805161414b906108df614140886002615080565b6108df896003615080565b610120820152600061416b61416187601f615080565b8360200151612673565b905061417c816108df836001612673565b60e083015261419961418f876026615080565b866040015161263b565b604083018190526141bc906108e46141b2896025615080565b886020015161263b565b604083018190526141dc906108e46141d5896024615080565b885161263b565b60408301526141f96141ef876027615080565b8360400151612673565b6040830152600061421961420e886026615080565b61090389601e615080565b905061426d61424761347c6140bb86608001516001600080516020615d9f8339815191526108df9190615691565b6108df6140bb86604001516001600080516020615d9f8339815191526108df9190615691565b60c0840152604083015161428f90614285908061263b565b8460400151612673565b61010084015260c08301516142bb906142ad906108df8a6004615080565b6108df6139818a600a615080565b6102008601526101c08301516142da906142ad906108df8a6004615080565b6102208601526101008301516142f9906142ad906108df8a6004615080565b61024086015260e0830151614313906108df896004615080565b610140840152614332614327886025615080565b61090389601d615080565b61016084015260808301516143719061420e90614366906140bb906108df6001600080516020615d9f833981519152615691565b85610160015161263b565b61018084018190526101208401516101a085018190526143a8916108e4906108df61439d8c6005615080565b6108df8d6002615080565b6101a0840181905283516143c991906108e4906108df61439d8c6000615080565b6101a084018190526101408401516143e19190612658565b6101a084018190526143fb906108df6139818a600a615080565b6101a0840181905285600d6137a6565b61444b6040518060e00160405280600081526020016000815260200160008152602001600081526020016000815260200160008152602001600081525090565b61448061446761445c86601c615080565b6108df876025615080565b6108e4614475876024615080565b6108df88601d615080565b81526144c56144ba6144a161449687601c615080565b6108df88601f615080565b6108e46144af88601d615080565b6108df89601e615080565b610903866026615080565b604082018190526144da90600160441b61263b565b604082018190526144f090610903866027615080565b6040820181905281516145039190612658565b60408201819052614519906108df866005615080565b6040820152805161452e90600160441b61263b565b80825261454e906108e4614543876024615080565b6108df886025615080565b808252602082018190526145759061090361456a87601e615080565b6108e488601f615080565b6020820181905261458b906108df866004615080565b60208201528051606082018190526145a8906108e486601f615080565b606082018190526145cc906109036145c1876026615080565b6108e4886027615080565b606082018190526145e2906108df866000615080565b816060018181525050600061460c61460283602001518460400151612658565b8360600151612658565b905061461d816108df876003615080565b905061463561462d866025615080565b61400061263b565b6080830181905261464b906108e4876024615080565b6080830181905261465e9061400061263b565b60808301819052614674906108e487601e615080565b608083018190526146879061400061263b565b6080830181905261469d906108e487601d615080565b608083018190526146b09061400061263b565b608083018190526146c6906108e487601c615080565b608083018190526146dc9061090387601f615080565b608083018190526146f2906108df876005615080565b608083015261470561462d866026615080565b60a0830181905261471b906108e4876025615080565b60a0830181905261472e9061400061263b565b60a08301819052614744906108e4876024615080565b60a083018190526147579061400061263b565b60a0830181905261476d906108e487601f615080565b60a083018190526147809061400061263b565b60a08301819052614796906108e487601e615080565b60a083018190526147ac90610903876027615080565b60a083018190526147c2906108df876000615080565b60a0830181905260808301516000916147db9190612658565b90506147ec816108df886004615080565b90506147f88282612658565b60c08401819052614811906108df61398189600b615080565b60c084018190528560136020020152505050505050565b6148af60405180610220016040528060008152602001600081526020016000815260200160008152602001600081526020016000815260200160008152602001600081526020016000815260200160008152602001600081526020016000815260200160008152602001600081526020016000815260200160008152602001600081525090565b6148c86148bd85601c615080565b6108e4866002615080565b81526148e36148d885601d615080565b6108e4866003615080565b60208201526149016148f685601e615080565b6108e4866004615080565b604082015261491f61491485601f615080565b6108e4866005615080565b606082015280516149519061494a906149439061493c908061263b565b845161263b565b835161263b565b825161263b565b6080820152602081015161498f906149859061497b90614971908061263b565b846020015161263b565b836020015161263b565b826020015161263b565b60a082015260408101516149cd906149c3906149b9906149af908061263b565b846040015161263b565b836040015161263b565b826040015161263b565b60c08201526060810151614a01906140c2906149f7906149ed908061263b565b846060015161263b565b836060015161263b565b60e0820152608081015160a0820151614a1a9190612658565b61010082015260c081015160e0820151614a349190612658565b61012082015260a0810151614a5890614a4d9080612658565b826101200151612658565b61014082015260e0810151614a7c90614a719080612658565b826101000151612658565b610160820152610120810151614a929080612658565b6101e08201819052614ab390614aa89080612658565b826101600151612658565b6101e0820152610100810151614ac99080612658565b6101a08201819052614aea90614adf9080612658565b826101400151612658565b6101a08201819052610160820151614b0191612658565b6101808201526101408101516101e0820151614b1d9190612658565b6101c0820152614b3161347c85600c615080565b6102008201819052610280840151610180830151614b5c926108e4916108df906109038a6024615080565b8360146020020152614b8c83601560200201516108e48361020001516108df856101a001516109038a6025615080565b8360156020020152614bbc83601660200201516108e48361020001516108df856101c001516109038a6026615080565b8360166020020152614bec83601760200201516108e48361020001516108df856101e001516109038a6027615080565b836017602002015250505050565b614c5760405180610160016040528060008152602001600081526020016000815260200160008152602001600081526020016000815260200160008152602001600081526020016000815260200160008152602001600081525090565b60006040518060800160405280614c8d7f10dc6e9c006ea38b04b1e03b4bd9490c0d03f98929ca1d7fb56821fd19d3b6e7612621565b8152602001614cbb7f0c28145b6a44df3e0149b3d0a30b3bb599df9756d4dd9b84a86b38cfb45a740b612621565b8152602001614ce87e544b8338791518b2c7645a50392798b21f75bb60e3596170067d00141cac15612621565b8152602001614d167f222c01175718386f2e2e82eb122789e352e105a3b8fa852613bc534433ee428b612621565b90529050614d33614d2886601c615080565b6108e4876002615080565b6101208301819052614d7290614d6790614d5c90614d51908061263b565b85610120015161263b565b84610120015161263b565b83610120015161263b565b8252614d7f85601d615080565b6020830152614d8f85601e615080565b6040830152614d9f85601f615080565b606083015281516020830151614dc79161460291614dbd9190612658565b8460400151612658565b6080830152614dda61373486600d615080565b6101408301528151614dfc90614df290836000610bee565b8360800151612658565b60a0830152614e2884601860200201516108e48461014001516108df8660a001516109038b6024615080565b6103008501526020820151614e4390614df290836001610bee565b60c0830152614e6f84601960200201516108e48461014001516108df8660c001516109038b6025615080565b6103208501526040820151614e8a90614df290836002610bee565b60e0830152614eb684601a60200201516108e48461014001516108df8660e001516109038b6026615080565b6103408501526060820151614ed190614df290836003610bee565b610100830152614eff84601b60200201516108e48461014001516108df8661010001516109038b6027615080565b84601b6135b7565b815160015b601c811015614f5957614f4f826108e48684601c8110614f2e57614f2e615c1c565b602002015186614f3f600187615691565b601b8110610bee57610bee615c1c565b9150600101614f0c565b5092915050565b60008083905060006040516020815260208082015260206040820152826060820152846080820152600080516020615d9f83398151915260a08201526020600060c08360055afa80614fb157600080fd5b5060005160809190910160405295945050505050565b614fcf6153bd565b614fd76153bd565b604051835181526020840151602082015284604082015260408160608360075afa8061500257600080fd5b5080518252602080820151908301526060016040529392505050565b6150266153bd565b61502e6153bd565b6040518451815260208501516020820152835160408201526020840151606082015260408160808360065afa8061506457600080fd5b5080518252602080820151908301526080016040529392505050565b60008282602881111561509557615095615d28565b602981106150a5576150a5615c1c565b60200201519392505050565b604051806103e001604052806000815260200160008152602001600081526020016150da6153bd565b81526020016150e76153bd565b81526020016150f46153bd565b81526020016151016153bd565b815260200161510e6153bd565b815260200161511b6153bd565b81526020016151286153bd565b81526020016151356153bd565b81526020016151426153bd565b815260200161514f6153bd565b815260200161515c6153bd565b81526020016151696153bd565b81526020016151766153bd565b81526020016151836153bd565b81526020016151906153bd565b815260200161519d6153bd565b81526020016151aa6153bd565b81526020016151b76153bd565b81526020016151c46153bd565b81526020016151d16153bd565b81526020016151de6153bd565b81526020016151eb6153bd565b81526020016151f86153bd565b81526020016152056153bd565b81526020016152126153bd565b815260200161521f6153bd565b815260200161522c6153bd565b81526020016152396153bd565b905290565b604051806102800160405280615252615490565b815260200161525f6153bd565b815260200161526c6153bd565b81526020016152796153bd565b81526020016152866153bd565b81526020016152936153bd565b81526020016152a06153bd565b81526020016152ad6153bd565b81526020016152ba6153bd565b81526020016152c76153bd565b81526020016152d46154af565b8152602001600081526020016152e86154dc565b8152602001600081526020016152fc61550a565b8152602001615309615529565b8152602001615316615409565b815260200161521f615557565b6040518061052001604052806029906020820280368337509192915050565b604051806101c0016040528060008152602001600081526020016000815260200160008152602001600081526020016000815260200160008152602001615387615557565b8152602001615394615557565b815260200160008152602001600081526020016000815260200160008152602001606081525090565b604051806040016040528060008152602001600081525090565b604051806040016040528061522c6153bd565b6040518061012001604052806009906020820280368337509192915050565b604051806103800160405280601c906020820280368337509192915050565b6040518060e0016040528061543b615575565b815260200160008152602001600081526020016000815260200160008152602001615464615575565b8152602001600081525090565b6040518061010001604052806008906020820280368337509192915050565b6040518061020001604052806010906020820280368337509192915050565b60405180606001604052806003905b6154c66153bd565b8152602001906001900390816154be5790505090565b604051806103800160405280601c905b6154f46153ea565b8152602001906001900390816154ec5790505090565b604051806105400160405280602a906020820280368337509192915050565b604051806103600160405280601b905b6155416153bd565b8152602001906001900390816155395790505090565b60405180608001604052806004906020820280368337509192915050565b604051806120000160405280610100906020820280368337509192915050565b600080600080604085870312156155ab57600080fd5b84356001600160401b038111156155c157600080fd5b8501601f810187136155d257600080fd5b80356001600160401b038111156155e857600080fd5b8760208284010111156155fa57600080fd5b6020918201955093508501356001600160401b0381111561561a57600080fd5b8501601f8101871361562b57600080fd5b80356001600160401b0381111561564157600080fd5b8760208260051b840101111561565657600080fd5b949793965060200194505050565b634e487b7160e01b600052601160045260246000fd5b808202811582820484141761265257612652615664565b8181038181111561265257612652615664565b8060005b60108110156131e45781518452602093840193909101906001016156a8565b80518252602090810151910152565b8060005b60038110156131e4576156ee8483516156c7565b60409390930192602091909101906001016156da565b8060005b601c8110156131e45781518460005b6009811015615736578251825260209283019290910190600101615717565b505050610120939093019260209190910190600101615708565b8060005b602a8110156131e4578151845260209384019390910190600101615754565b8060005b601b8110156131e45761578b8483516156c7565b6040939093019260209190910190600101615777565b8060005b601c8110156131e45781518452602093840193909101906001016157a5565b8060005b60048110156131e45781518452602093840193909101906001016157c8565b81835260006001600160fb1b0383111561580057600080fd5b8260051b80836020870137939093016020019392505050565b6158248188516156a4565b600060208801516158396102008401826156c7565b50604088015161584d6102408401826156c7565b5060608801516158616102808401826156c7565b5060808801516158756102c08401826156c7565b5060a08801516158896103008401826156c7565b5060c088015161589d6103408401826156c7565b5060e08801516158b16103808401826156c7565b506101008801516158c66103c08401826156c7565b506101208801516158db6104008401826156c7565b506101408801516158f06104408401826156d6565b50610160880151610500830152610180880151615911610520840182615704565b506101a08801516124a08301526101c08801516159326124c0840182615750565b506101e0880151615947612a00840182615773565b5061020088015161595c6130c08401826157a1565b506102208801516159716134408401826157c4565b506102408801516159866134c08401826156c7565b5061026088015161599b6135008401826156c7565b506135c06135408301526159b46135c0830187896157e7565b613560830195909552506135808101929092526135a0909101529392505050565b634e487b7160e01b600052604160045260246000fd5b60405161014081016001600160401b0381118282101715615a0e57615a0e6159d5565b60405290565b604051601f8201601f191681016001600160401b0381118282101715615a3c57615a3c6159d5565b604052919050565b600060c08284031215615a5657600080fd5b60405160c081016001600160401b0381118282101715615a7857615a786159d5565b604090815283518252602080850151908301528381015190820152606080840151908201526080808401519082015260a0928301519281019290925250919050565b600082601f830112615acb57600080fd5b6000610360615ad981615a14565b915083018185821115615aeb57600080fd5b845b82811015615b05578051825260209182019101615aed565b509195945050505050565b600082601f830112615b2157600080fd5b6000610380615ad981615a14565b6000610be0828403128015615b4357600080fd5b506000615b4e6159eb565b615b588585615a44565b8152615b678560c08601615aba565b6020820152615b7a856104208601615b10565b60408201526107a08401516060820152615b98856107c08601615b10565b6080820152610b4084015160a0820152610b6084015160c0820152610b8084015160e0820152610ba0840151610100820152610bc090930151610120840152509092915050565b8082018082111561265257612652615664565b60008085851115615c0257600080fd5b83861115615c0f57600080fd5b5050820193919092039150565b634e487b7160e01b600052603260045260246000fd5b600060018201615c4457615c44615664565b5060010190565b8035602083101561265257600019602084900360031b1b1692915050565b600082615c8657634e487b7160e01b600052601260045260246000fd5b500690565b600081615c9a57615c9a615664565b506000190190565b60008183825b6008811015615cc7578151835260209283019290910190600101615ca8565b5050506101008201905092915050565b6000825160005b81811015615cf85760208186018101518583015201615cde565b506000920191825250919050565b600060208284031215615d1857600080fd5b815180151581146103ff57600080fd5b634e487b7160e01b600052602160045260246000fdfe30644e72e131a029b85045b68181585d2833e84879b9709143e1f593effffd3130644e72e131a029b85045b68181585d97816a916871ca8d3c208c16d87cfd47204bd3277422fad364751ad938e2b5e6a54cf8c68712848a692c553d0329f5d630644e72e131a029b85045b68181585d2833e84879b9709143e1f593f000000130644e72e131a029b85045b68181585d2833e84879b9709143e1f593efffec51a264697066735822122024cc8c9aa85bb189ab75cf72b595ca564802ff7053100368455c637282b2163164736f6c634300081e0033",
  "deployedBytecode": "0x608060405234801561001057600080fd5b506004361061002b5760003560e01c8063ea50d0e414610030575b600080fd5b61004361003e366004615595565b610057565b604051901515815260200160405180910390f35b6000806100837f00000000000000000000000000000000000000000000000000000000000000006102f8565b905061009081602061567a565b85146100f2577f0000000000000000000000000000000000000000000000000000000000000000856100c383602061567a565b6040516359895a5360e01b81526004810193909352602483019190915260448201526064015b60405180910390fd5b60006100fc610406565b9050600061012b88887f000000000000000000000000000000000000000000000000000000000000000061041b565b90506010826040015161013e9190615691565b851461015d5760405163fa06659360e01b815260040160405180910390fd5b604051631ee2b3f360e21b815260009073__$e0b124e9d585bc9841ab4ba1b08b349a49$__90637b8acfcc906102019085908b908b907f0000000000000000000000000000000000000000000000000000000000000000907f0000000000000000000000000000000000000000000000000000000000000000907f000000000000000000000000000000000000000000000000000000000000000090600401615819565b610be060405180830381865af415801561021f573d6000803e3d6000fd5b505050506040513d601f19601f820116820180604052508101906102439190615b2f565b905061029487878080602002602001604051908101604052809392919081815260200183836020028082843760009201919091525050855185516060810151608090910151919350915060016108bb565b815160a001526102a48282610a28565b6102c1576040516313f8744360e31b815260040160405180910390fd5b6102cc828483610c37565b6102e9576040516352ec174560e11b815260040160405180910390fd5b50600198975050505050505050565b600080600261030960016008615bdf565b610313919061567a565b90506103216002600361567a565b61032b9082615bdf565b9050600161033a60098561567a565b610344919061567a565b61034e9082615bdf565b9050600161035d816029615bdf565b610367919061567a565b6103719082615bdf565b905061037f6001600261567a565b6103899082615bdf565b905061039660018461567a565b6103a09082615bdf565b90506103ae6001600461567a565b6103b89082615bdf565b905060026103c7600185615691565b6103d1919061567a565b6103db9082615bdf565b90506103e860028061567a565b6103f29082615bdf565b90506103ff601082615bdf565b9392505050565b61040e6150b1565b610416611c4e565b905090565b61042361523e565b6000805b601081101561048657610453868387610441602083615bdf565b9261044e93929190615bf2565b612588565b8351826010811061046657610466615c1c565b60200201818152505060208261047c9190615bdf565b9150600101610427565b506104aa858286610498604083615bdf565b926104a593929190615bf2565b61259c565b60208301526104ba604082615bdf565b90506104cd858286610498604083615bdf565b6040808401919091526104e09082615bdf565b90506104f3858286610498604083615bdf565b6060830152610503604082615bdf565b9050610516858286610498604083615bdf565b6080830152610526604082615bdf565b9050610539858286610498604083615bdf565b60c0830152610549604082615bdf565b905061055c858286610498604083615bdf565b60e083015261056c604082615bdf565b905061057f858286610498604083615bdf565b60a083015261058f604082615bdf565b90506105a2858286610498604083615bdf565b6101008301526105b3604082615bdf565b90506105c6858286610498604083615bdf565b6101208301526105d7604082615bdf565b90506105ea858286610498604083615bdf565b610140830151526105fc604082615bdf565b905061060f858286610441602083615bdf565b610160830152610620602082615bdf565b905060005b838110156106a05760005b60098110156106975761064a878488610441602083615bdf565b84610180015183601c811061066157610661615c1c565b6020020151826009811061067757610677615c1c565b60200201818152505060208361068d9190615bdf565b9250600101610630565b50600101610625565b5060005b6106b060016029615bdf565b8110156106ff576106c8868387610441602083615bdf565b836101c0015182602a81106106df576106df615c1c565b6020020181815250506020826106f59190615bdf565b91506001016106a4565b50610711858286610441602083615bdf565b6101a0830152610722602082615bdf565b9050610735858286610498604083615bdf565b6101408301516020015261074a604082615bdf565b905061075d858286610498604083615bdf565b61014083015160026020020152610775604082615bdf565b905060005b610785600185615691565b8110156107ce5761079d868387610498604083615bdf565b836101e0015182601b81106107b4576107b4615c1c565b60200201526107c4604083615bdf565b915060010161077a565b5060005b83811015610822576107eb868387610441602083615bdf565b83610200015182601c811061080257610802615c1c565b6020020181815250506020826108189190615bdf565b91506001016107d2565b5060005b600481101561087757610840868387610441602083615bdf565b836102200151826004811061085757610857615c1c565b60200201818152505060208261086d9190615bdf565b9150600101610826565b50610889858286610498604083615bdf565b61024083015261089a604082615bdf565b90506108ad858286610498604083615bdf565b610260830152509392505050565b6000600180826108e9866108e4896108df6108da8a6310000000615bdf565b612621565b61263b565b612658565b90506000610908876109038a6108df6108da8b6001615bdf565b612673565b905060005b61093860107f0000000000000000000000000000000000000000000000000000000000000000615691565b8110156109a65760006109638c838151811061095657610956615c1c565b602002602001015161269e565b9050610973866108df8684612658565b9550610983856108df8584612658565b945061098f848b612658565b935061099b838b612673565b92505060010161090d565b5060005b6010811015610a0f5760008a82601081106109c7576109c7615c1c565b602002015190506109dc866108df8684612658565b95506109ec856108df8584612658565b94506109f8848b612658565b9350610a04838b612673565b9250506001016109aa565b50610a1a84846126b5565b9a9950505050505050505050565b600080610a3e836060015185610160015161263b565b9050600160005b7f0000000000000000000000000000000000000000000000000000000000000000811015610b3457600086610180015182601c8110610a8657610a86615c1c565b60200201518051909150600090610aa5908360015b6020020151612658565b9050848114610ac7576040516313f8744360e31b815260040160405180910390fd5b6000876080015184601c8110610adf57610adf615c1c565b60200201519050610af083826126c4565b9550610b24856108df60016108e4856108df8e604001518b601c8110610b1857610b18615c1c565b60200201516001612673565b9450505050806001019050610a45565b50610b3d615323565b60005b6029811015610b8e576101c0870151610b5a600183615bdf565b602a8110610b6a57610b6a615c1c565b6020020151828260298110610b8157610b81615c1c565b6020020152600101610b40565b506000610ba582876000015188602001518661282c565b9050600160025b7f0000000000000000000000000000000000000000000000000000000000000000811015610c0257610bf882896080015183601c8110610bee57610bee615c1c565b602002015161263b565b9150600101610bac565b50610c28610c15836108df600185612673565b6108e48a6101a001518a6060015161263b565b94909414979650505050505050565b6000610c41615342565b6000610c718460c001517f00000000000000000000000000000000000000000000000000000000000000006128a6565b905060007f00000000000000000000000000000000000000000000000000000000000000006001600160401b03811115610cad57610cad6159d5565b604051908082528060200260200182016040528015610cd6578160200160208202803683370190505b50905060007f00000000000000000000000000000000000000000000000000000000000000006001600160401b03811115610d1357610d136159d5565b604051908082528060200260200182016040528015610d4c57816020015b610d396153bd565b815260200190600190039081610d315790505b509050610d80610d7b87610100015185600081518110610d6e57610d6e615c1c565b6020026020010151612673565b612971565b84610120018181525050610db6610d7b87610100015185600081518110610da957610da9615c1c565b6020026020010151612658565b610140850181905261012085015160e0880151610dd7926108e4919061263b565b845260c0860151610e0790610deb90612971565b6108df8661012001516109038a60e0015189610140015161263b565b602085015281516001908390600090610e2257610e22615c1c565b60200260200101818152505087610240015181600081518110610e4757610e47615c1c565b6020908102919091010152600160a0850152600060c08501528351610e6b906129e8565b60408501526020840151610e7e906129e8565b606085015260015b610e9260016024615bdf565b8111610f3357610eaa85604001518660a0015161263b565b838281518110610ebc57610ebc615c1c565b602002602001018181525050610f058560c001516108e48b6101c00151600185610ee69190615691565b602a8110610ef657610ef6615c1c565b60200201518860a0015161263b565b60c086015260a08086015190880151610f1e919061263b565b60a0860152610f2c81615c32565b9050610e86565b5060005b600581101561100f576000610f4d601e83615bdf565b90506000610f5d60016024615bdf565b610f679084615bdf565b9050610f98858381518110610f7e57610f7e615c1c565b60200260200101516108e489606001518a60a0015161263b565b858381518110610faa57610faa615c1c565b602002602001018181525050610fe78760c001516108e48d6101c0015184602a8110610fd857610fd8615c1c565b60200201518a60a0015161263b565b60c088015260a080880151908a0151611000919061263b565b60a08801525050600101610f37565b5087602001518160018151811061102857611028615c1c565b602002602001018190525086606001518160028151811061104b5761104b615c1c565b602002602001018190525086608001518160038151811061106e5761106e615c1c565b60200260200101819052508660a001518160048151811061109157611091615c1c565b60200260200101819052508660c00151816005815181106110b4576110b4615c1c565b60200260200101819052508660e00151816006815181106110d7576110d7615c1c565b6020026020010181905250866101000151816007815181106110fb576110fb615c1c565b60200260200101819052508661012001518160088151811061111f5761111f615c1c565b60200260200101819052508661014001518160098151811061114357611143615c1c565b602002602001018190525086610160015181600a8151811061116757611167615c1c565b6020026020010181905250866101c0015181600b8151811061118b5761118b615c1c565b602002602001018190525086610180015181600c815181106111af576111af615c1c565b6020026020010181905250866101a0015181600d815181106111d3576111d3615c1c565b6020026020010181905250866101e0015181600e815181106111f7576111f7615c1c565b602002602001018190525086610200015181600f8151811061121b5761121b615c1c565b60200260200101819052508661022001518160108151811061123f5761123f615c1c565b60200260200101819052508661024001518160118151811061126357611263615c1c565b60200260200101819052508661026001518160128151811061128757611287615c1c565b6020026020010181905250866102800151816013815181106112ab576112ab615c1c565b6020026020010181905250866102a00151816014815181106112cf576112cf615c1c565b6020026020010181905250866102c00151816015815181106112f3576112f3615c1c565b6020026020010181905250866102e001518160168151811061131757611317615c1c565b60200260200101819052508661030001518160178151811061133b5761133b615c1c565b60200260200101819052508661032001518160188151811061135f5761135f615c1c565b60200260200101819052508661034001518160198151811061138357611383615c1c565b602002602001018190525086610360015181601a815181106113a7576113a7615c1c565b602002602001018190525086610380015181601b815181106113cb576113cb615c1c565b6020026020010181905250866103a0015181601c815181106113ef576113ef615c1c565b6020026020010181905250866103c0015181601d8151811061141357611413615c1c565b6020026020010181905250876040015181601e8151811061143657611436615c1c565b6020026020010181905250876060015181601f8151811061145957611459615c1c565b602002602001018190525087608001518160208151811061147c5761147c615c1c565b60200260200101819052508760a001518160218151811061149f5761149f615c1c565b6020026020010181905250876101200151816022815181106114c3576114c3615c1c565b6020026020010181905250876101000151816023815181106114e7576114e7615c1c565b60200260200101819052508760c001518160248151811061150a5761150a615c1c565b60200260200101819052508760e001518160258151811061152d5761152d615c1c565b6020026020010181905250600061157487608001518660c001518b6102000151877f00000000000000000000000000000000000000000000000000000000000000006129fb565b905061159f8160008151811061158c5761158c615c1c565b602002602001015186610120015161263b565b608086018190526102008a01515160e08901516115d092916108e4916115c5919061263b565b88610140015161263b565b608086015260e08701516115e390612b5d565b60a086015260006115f660016024615bdf565b611601906001615bdf565b905060005b61163160017f0000000000000000000000000000000000000000000000000000000000000000615691565b81101561184457600061166560017f0000000000000000000000000000000000000000000000000000000000000000615691565b8210159050806117d557611699610d7b8b6101000151898560016116899190615bdf565b81518110610d6e57610d6e615c1c565b6101208901526101008a01516116c990610d7b90896116b9866001615bdf565b81518110610da957610da9615c1c565b61014089015260a08801516101208901516116e4919061263b565b61016089015260a088015160e08b015161170c916117019161263b565b89610140015161263b565b610180890181905261172f90611721906129e8565b6108e48a61016001516129e8565b8661173a8486615bdf565b8151811061174a5761174a615c1c565b60200260200101818152505060006117848961018001518e61020001518560016117749190615bdf565b601c8110610bee57610bee615c1c565b90506117be816108e48b6101600151888760016117a19190615bdf565b815181106117b1576117b1615c1c565b602002602001015161263b565b90506117ce896080015182612658565b60808a0152505b6117f46117ea8960a001518c60e0015161263b565b8b60e0015161263b565b60a08901526101e08c015182601b811061181057611810615c1c565b6020020151856118208486615bdf565b8151811061183057611830615c1c565b602090810291909101015250600101611606565b5061187060017f0000000000000000000000000000000000000000000000000000000000000000615691565b61187a9082615bdf565b905061189a6118928961010001518a60c00151612673565b6001906126b5565b60e08701515261010088015160c08901516118de9161189291610903907f07b0c561a6148404f086204a9f36ffb0617942546750f230c893619174a57a769061263b565b60e0878101805160200192909252815180516040909101529051805160609091015260a087015190890151611920916119169161263b565b8960e0015161263b565b60a087015260005b60048110156119d057600061195b8860e00151836004811061194c5761194c615c1c565b60200201518960a0015161263b565b9050611966816129e8565b886101000151836004811061197d5761197d615c1c565b602002015260a088015160e08b0151611996919061263b565b8860a00181815250506119c288608001516108e4838f61022001518660048110610bee57610bee615c1c565b608089015250600101611928565b506101008601515184518590839081106119ec576119ec615c1c565b60209081029190910181019190915261010087015190810151611a10916002610a9b565b84611a1c836001615bdf565b81518110611a2c57611a2c615c1c565b60209081029190910101526101008601516060015184611a4d836002615bdf565b81518110611a5d57611a5d615c1c565b60200260200101818152505060005b6003811015611ac1578a61014001518160038110611a8c57611a8c615c1c565b60200201518483611a9c81615c32565b945081518110611aae57611aae615c1c565b6020908102919091010152600101611a6c565b506040518060400160405280600181526020016002815250838281518110611aeb57611aeb615c1c565b60200260200101819052508560800151848280611b0790615c32565b935081518110611b1957611b19615c1c565b602002602001018181525050611b438a61022001518960c001518a608001518d6101a00151612b69565b611b605760405163a2a2ac8360e01b815260040160405180910390fd5b60008a6102600151905080848381518110611b7d57611b7d615c1c565b6020026020010181905250886101000151858381518110611ba057611ba0615c1c565b602002602001018181525050611bb46153d7565b611bbe8587612eb1565b8152611bc982612faa565b602082018190528c518251600092611be2929190612ff2565b9050600080611bf48f60000151613085565b91509150611c0182613146565b611c0a81613146565b8351611c179083856131ea565b84526020840151611c299082856131ea565b602085018190528451611c3b91613219565b9f9e505050505050505050505050505050565b611c566150b1565b50604080516103e0810182526201000081526010602080830191909152606582840152825180840184527f0e67d77ab4098613db339f856c69657d5d9d66b7b7d4020caf2a77b635b5e24581527f0e946ab9576d5bfb6b8dcd5730a438de66a49e95e8434ae878ac95dd5483006a818301526060830152825180840184527f08379b4bccd0ab5853c4482509dc1b3ce77e963a635efa74ad7386edb2c00ec981527f0b491d4cc415778c4f389b3d09402405777d2d2fc458aece45a0165e73448a81818301526080830152825180840184527f051c5d84aac2cb910727863388085bb60e651bd171705b2a8eeeea742e96739b81527f2a19a747ea37ce86584e519e5f9537611dbcc1d3c9d996d2fb79136b56f287ca8183015260a0830152825180840184527f0b0a7911a3e6d046d55b9e4cf47b0dda8cba6d4dfbf05fe5840fc7d33da1ab1e81527f03e55262b01ab8bc36f35949e1e0d1857c2c06a0973407faa941b8f2aad226d48183015260c0830152825180840184527f03031a8414567f129dc22944ae59a838e2b3de636aebc854de9d44b4a18764a781527f177a41bf94f445e909ff312ccbcd638ddfb8009de7293b14e7cd09e1f31ac5008183015260e0830152825180840184527f06054bddda9322ba2b6c1c9d6489f0d0546d4952b4832c2efb731a355d6ccc9b81527f28654d64d352a68e1b0cef0a1f042fbacbe77d658c3fd6e4fa722ed28098a11081830152610100830152825180840184527f1dfeef16ac6a9daabc4b00e7b4fc9f4f00f6344ec2a80a7e601b3b1ae7ec0cd681527f1888c0249ac7a8e36f14f56ddf4321af43c635321e0dea7541972b0b90d39d3781830152610120830152825180840184527f0caf0f9fa49849f628cc6c02832a26444009de6de8c6b279f13a193b8cd3fbaf81527f1341c8908fa19245103e3cacadf0f4d7bf0799a244e3b9e27a6a786dbc11024281830152610140830152825180840184527f24817d918127b96e116797b1188b768e34b4eee25c0e294abd9111f724ed6a1781527f2331c7a4d4bd2057bba6ee417926787ede0d1f327065aa7f4a07cdaf83efe00281830152610160830152825180840184527f190b24ed4cc2575a1da363d47db2437d125bb6cdad9b7a42c22e234f9f0220fa81527f1ec59a4d1c3fe928f9d9b46480be4a699d577a67abcc08951af8944e5889796d81830152610180830152825180840184527f07994b32df7d884216efb8b6873236c7ad6d3fdcb5eecada5bc344ffca310c1f81527f0179a613410affe965cb20e3933f74318c14e8c05021c5efc8fd9eb9f16bddba818301526101a0830152825180840184527f1b3f9ae13828decc2d4371d825442466ad126247c2f8512b5d3a97a07c1a040481527f2b414f20cdaea6500393a95107a0e22fd02af442a2b49f626288bffbc03b7bc0818301526101c0830152825180840184527f01521349814c418c79c58978fbb06f3907839487babaa286244cf1d119ddc0a181527f18c82171ada65a09c15e9d83d19b9cce9006ad5aedb904ddcc2b1e4f96ca659e818301526101e0830152825180840184527f1f9ffbe52cf93087a8f6df50e1c672d3fb5651275b8111a3240cbc19b2015d8f81527f1f0bf840b047da8f47382e53ef52aa04333f27755386d44342de584f31de9a3781830152610200830152825180840184527f2745dcf25e37a90b8c143b3c874b3a1f46da754751c9ea0770e8f151231463aa81527f2222e1e9a54c400ec19e4ed209501a65302903d547be5618bfc73613908e560681830152610220830152825180840184527f0e1968abfbe7b4f046ed5eb789bb57d5f7b8f5c5dfad20363897a2a35c4cc49581527f27692f0b2a73f5d47ff70423fb74b95fc2a30e198c0af888da21c730a57ec0b781830152610240830152825180840184527f144055868005b73284f90d215e02e9ae2bdfa29944bca181dc86380b3ba2ddb181527f0ca347122851d6b120356467c91f5260c42dbee4f1728a554cda2d7411cb873181830152610260830152825180840184527f206900e86c9b44f980b124ad0d061fe28bff83daf846921a011ea4f807e8b4f381527f20a5d7233e59b83847a53342e85403b1776f50dd7456c3065b9654a785dec2de81830152610280830152825180840184527f2de11532c64f51f2cea4798f43ae109fa37a66cfe52f84337146a851794ff79f81527f07d616830f7757971deb642978f33292e3ba30199bb28321e5a9ac92a914da6e818301526102a0830152825180840184527f028519d6fd95deee912310346a1209632571abfea0ee5e93c9d7ae61390d8b7f81527f2e1932e0964743887a1eed4d4ba77ab340fba8623b7fc22ee8012290d9724a3c818301526102c0830152825180840184527f222428db9fae1a1b6681221133a3ee7195ea68f44d065d55dada56864ec1b75e81527edd46cddbcbb3d29c2f123e7711d885bd7d85017711a0bc43bb96a1db28cbf3818301526102e0830152825180840184527f2bc19108e6fec5f148526b5e670b381ff70ef896e0f960c7840a9b6fc1f8dbf581527f2362887f11cd8f6b86e625770669bd5074388e516bf629503fa24ba86a04b6d881830152610300830152825180840184527f2c08d4d73d6e81dd907037591de13bac52d1958aa932ddcbd8fc3cd232a5149081527f2e41f0a3311b690b1708f7417b61a3e8660b6237d4ff8e99bc1a53697a41fca681830152610320830152825180840184527f1708c82a334db5cf7bb7cb32907994ab0acf550f3994abecf91a58a927f681c381527f0a8b4d30c7ae4c64db86431021b04e15e7a8c81214f9bb894c93f50026c258dc81830152610340830152825180840184527f2db5412df862a4bee09bca2d21991535a90769d5a2149f9ae97c453ff5622f6e81527f16f4747a0632c799c26c2e5f627ace7fb1b66358376e38accbf00e67f735020681830152610360830152825180840184527f0db4fa6fbb88e7c0ee5c92d39895b378d9b8546cd96ddf773d257afcad7d2dce81527f2408caf7a5703d9fbccbe0b98c5f32b6ac113e23d5d1c29c4eac0ef4c67618298183015261038083015282518084018452600181526002818301526103a083015282518084019093527f095c5b302d44539f088fc74033d4c0293b3e1c05626cf12f2cea561104c378fc83527f23c733da6849aac9a50598c4f655c882caa19e247f0c02f5b7b81baf4de93b47908301526103c081019190915290565b60006103ff6125978385615c4b565b61269e565b6125a46153bd565b6040805180820190915280600080516020615d5f8339815191526125cc602060008789615bf2565b6125d591615c4b565b6125df9190615c69565b8152602090810190600080516020615d5f83398151915290612605906040908789615bf2565b61260e91615c4b565b6126189190615c69565b90529392505050565b6000600080516020615d9f833981519152825b0692915050565b6000600080516020615d9f83398151915282840990505b92915050565b6000600080516020615d9f8339815191528284089392505050565b6000600080516020615d9f83398151915282600080516020615d9f8339815191520384089392505050565b6000600080516020615d9f83398151915282612634565b60006103ff836108df84612971565b600080604051806101200160405280619d808152602001600080516020615dbf83398151915281526020016105a08152602001600080516020615d3f83398151915281526020016102408152602001600080516020615d3f83398151915281526020016105a08152602001600080516020615dbf8339815191528152602001619d80815250905060006001905060005b60098110156127755761276b826108df8784612673565b9150600101612754565b5061277e6153ea565b60005b60098110156127d0576127b1610d7b8583600981106127a2576127a2615c1c565b60200201516108df8985612673565b8282600981106127c3576127c3615c1c565b6020020152600101612781565b5060005b60098110156128175761280d856108e48984600981106127f6576127f6615c1c565b6020020151858560098110610bee57610bee615c1c565b94506001016127d4565b50612822848361263b565b9695505050505050565b6000612836615409565b612841868285613412565b61284d868683866135c3565b612859868683866137b4565b6128648682856139e6565b61286f868285613be4565b61287b86868386613f49565b61288686828561440b565b612891868285614828565b61289c868285614bfa565b6128228185614f07565b60606000826001600160401b038111156128c2576128c26159d5565b6040519080825280602002602001820160405280156128eb578160200160208202803683370190505b509050838160008151811061290257612902615c1c565b602090810291909101015260015b838110156129695761294482612927600184615691565b8151811061293757612937615c1c565b6020026020010151612b5d565b82828151811061295657612956615c1c565b6020908102919091010152600101612910565b509392505050565b600080829050600060405160208152602080820152602060408201528260608201526002600080516020615d9f833981519152036080820152600080516020615d9f83398151915260a08201526020600060c08360055afa806129d357600080fd5b50600051608091909101604052949350505050565b600080516020615d9f8339815191520390565b60606000826001600160401b03811115612a1757612a176159d5565b604051908082528060200260200182016040528015612a40578160200160208202803683370190505b509050825b8015612b5257600085612a59600184615691565b81518110612a6957612a69615c1c565b60200260200101519050600089600184612a839190615691565b601c8110612a9357612a93615c1c565b602002015190506000612aef612ab3612aac858d61263b565b600261263b565b6109038b612ac2600189615691565b601c8110612ad257612ad2615c1c565b60200201516108df612ae9886108df60018a612673565b87612673565b9050612b10816108df610d7b612b0a876108df600189612673565b86612658565b99508990508085612b22600187615691565b81518110612b3257612b32615c1c565b60200260200101818152505050505080612b4b90615c8b565b9050612a45565b509695505050505050565b6000612652828361263b565b6000600181612b83612b7d87610100614f60565b83612673565b905080612ba35760405163835eb8f760e01b815260040160405180910390fd5b612bab615428565b805183905260005b7f0000000000000000000000000000000000000000000000000000000000000000811015612c98576000612be882600961567a565b612bf3906001615bdf565b9050848360000151826101008110612c0d57612c0d615c1c565b60200201526000612c1f826001615bdf565b90505b612c2d600983615bdf565b811015612c8e578351612c6d90612c45600184615691565b6101008110612c5657612c56615c1c565b60200201518a85601c8110610bee57610bee615c1c565b8451826101008110612c8157612c81615c1c565b6020020152600101612c22565b5050600101612bb3565b50608081018390526000602082018190525b610100811015612d9957612ccb612cc583608001518a61263b565b85612673565b8260a00151826101008110612ce257612ce2615c1c565b602002015260a0820151612d0c90826101008110612d0257612d02615c1c565b6020020151612971565b8260a00151826101008110612d2357612d23615c1c565b602002018181525050612d6a82602001516108e48460000151846101008110612d4e57612d4e615c1c565b60200201518560a00151856101008110610bee57610bee615c1c565b60208301526080820151612d8c90600080516020615d7f83398151915261263b565b6080830152600101612caa565b506000612dab836108df610100612971565b9050612dbb82602001518261263b565b602083015260a0820151612dd79060005b60200201518261263b565b604083015260a0820151612e0390612df26001610100615691565b6101008110612dcc57612dcc615c1c565b60608301526040820151612e19908a6002610bee565b60c08301819052612e67906108e4612e3f8b600080516020615d7f833981519152612673565b60208d015160408e01516108df91612e5691612673565b8e516020890151610903919061263b565b60c083018190526060830151612e9c91612e90916108e4906108df8e600260200201518c612673565b610903858c6003610bee565b60c08301819052159998505050505050505050565b612eb96153bd565b7f000000000000000000000000000000000000000000000000000000000000000060005b81811015612f0f57612f07858281518110612efa57612efa615c1c565b6020026020010151613146565b600101612edd565b50604051600190815b60018401811015612f745760208102870160208202870181515160408501528151602001516060850152805160808501525050604080830160606040850160075afa8316925060408260808460065afa90921691600101612f18565b5080518452602081015160208501525080612fa2576040516352ec174560e11b815260040160405180910390fd5b505092915050565b612fb26153bd565b600080516020615d5f8339815191528260200151600080516020615d5f833981519152612fdf9190615691565b612fe99190615c69565b60208301525090565b600080600061300086613085565b9150915061300c615471565b82518152602080840151818301528251604080840191909152838201516060840152875160808401528782015160a0840152865160c08401528682015160e08401525161307a9161305f91849101615ca2565b6040516020818303038152906040528051906020012061269e565b979650505050505050565b61308d6153bd565b6130956153bd565b82516020808501516040860151606087015160cc90811b608892831b604494851b90961795909517949094178652608087015160a088015160c089015160e08a0151871b90841b91851b9092171717868401526101008701516101208801516101408901516101608a0151871b90841b91851b909217171785526101808701516101a08801516101c08901516101e09099015190951b9790911b9390911b1791909117939093179281019290925291565b805160208201516000600080516020615d5f833981519152838009600080516020615d5f8339815191526003600080516020615d5f83398151915283870908600080516020615d5f83398151915284850914915050806131e45760405162461bcd60e51b8152602060048201526019602482015278706f696e74206973206e6f74206f6e2074686520637572766560381b60448201526064016100e9565b50505050565b6131f26153bd565b6131fa6153bd565b6132048386614fc7565b9050613210818561501e565b95945050505050565b81516020808401518351848301516040805194850195909552938301919091527f198e9393920d483a7260bfb731fb5d25f1aa493335a9e71297e485b7aef312c260608301527f1800deef121f1e76426a00665e5c4479674322d4f75edadd46debd5cd992f6ed60808301527f090689d0585ff075ec9e99ad690c3395bc4b313370b38ef355acdadcd122975b60a08301527f12c85ea5db8c6deb4aab71808dcb408fe3d1e7690c43d37b4ce6cc0166fa7daa60c083015260e08201526101008101919091527f260e01b251f6f1c7e7ff4e580791dee8ea51d87a358e038b4efe30fac09383c16101208201527f0118c4d5b837bcc2bc89b5b398b5974e9f5944073b32078b7e231fec938883b06101408201527f04fc6369f7110fe3d25156c1bb9a72859cf2a04641f99ba4ee413c80da6a5fe46101608201527f22febda3c0c0632a56475b4214e5615e11e6dd3f96e6cea2854a87d4dacc5e5561018082015260009081906101a001604051602081830303815290604052905060008060086001600160a01b0316836040516133b19190615cd7565b600060405180830381855afa9150503d80600081146133ec576040519150601f19603f3d011682016040523d82523d6000602084013e6133f1565b606091505b50915091508180156128225750808060200190518101906128229190615d06565b600061341f846007615080565b90507f183227397098d014dc2822db40c0ac2e9419f4243cdcb848a1f0fac9f8000000600061348261347c613455856003612673565b6108df6134716134668b6000615080565b6108df8c601d615080565b6108df8b601c615080565b8361263b565b90506135036134f86134df6134c66134ad856108e46134a28d6002615080565b6108df8e601c615080565b6108e46134bb8c6003615080565b6108df8d601d615080565b6108e46134d48b6004615080565b6108df8c601e615080565b6108e46134ed8a6005615080565b6108df8b601f615080565b6108e4886001615080565b9050613522816108e4613517866001612673565b6108df8a6027615080565b905061352e818461263b565b905061353a818561263b565b8552506000905061357661356b61356061355588601c615080565b6108e489601f615080565b610903886024615080565b6108e4876000615080565b9050613587816108df846002612673565b9050613598816108df846001612673565b90506135a4818361263b565b90506135b0818461263b565b9050808460015b60200201525050505050565b60008060006135fb6135f16135d989601c615080565b6108e46135e78b6012615080565b8a6060015161263b565b8760800151612658565b9050613634816108df61362a6136128b601d615080565b6108e46136208d6013615080565b8c6060015161263b565b8960800151612658565b9050613659816108df61362a61364b8b601e615080565b6108e46136208d6014615080565b905061367e816108df61362a6136708b601f615080565b6108e46136208d6015615080565b9250600090506136a36135f161369589601c615080565b6108e46135e78b600e615080565b90506136c8816108df61362a6136ba8b601d615080565b6108e46136208d600f615080565b90506136ed816108df61362a6136df8b601e615080565b6108e46136208d6010615080565b9050613712816108df61362a6137048b601f615080565b6108e46136208d6011615080565b91506000905061373a613734613729896020615080565b6108e48a601a615080565b8461263b565b905061376f816109036137696137518b6028615080565b6108e461375f8d601b615080565b8c60a0015161263b565b8561263b565b905061377b818561263b565b604086015250600061379f61376961379489601b615080565b6108df8a6028615080565b9050808560035b602002015250505050505050565b6000806138136137fb6137e36137ce61362a8a6016615080565b6108e46137dc8b6017615080565b8a5161263b565b6108e46137f18a6018615080565b896020015161263b565b6108e4613809896019615080565b886040015161263b565b9150600061384b61383261382889601c615080565b8860800151612658565b6108e46138408a6003615080565b6108df8b6024615080565b9050600061387661385d89601d615080565b6108e461386b8b6000615080565b6108df8c6025615080565b905060006138a16138888a601e615080565b6108e46138968c6001615080565b6108df8d6026615080565b90506138e16138c96138bb856108e4868d6000015161263b565b6108e4848c6020015161263b565b6108e46138d78c6004615080565b8b6040015161263b565b935050505060006138f6613734886021615080565b90506000613908613734896021615080565b9050600061394161392861391d8b6023615080565b6108e48c6006615080565b6109036139368c6023615080565b6108df8d6006615080565b90506000613960612b7d613955878961263b565b6108df8d6021615080565b905061396c818861263b565b905060006139956139876139818d6006615080565b8761263b565b6109036139818e6022615080565b905060006139a48c6023615080565b905060006139b5612b7d838461263b565b60808c0185905260a08c0184905290506139cf818b61263b565b8b6006602002015250505050505050505050505050565b60006139f460006001612673565b90506000613a0460006002612673565b90506000613a1460006003612673565b90506000613a31613a2688601d615080565b61090389601c615080565b90506000613a4e613a4389601e615080565b6109038a601d615080565b90506000613a6b613a608a601f615080565b6109038b601e615080565b90506000613a88613a7d8b6024615080565b6109038c601f615080565b905083613a99816108df818b612658565b9050613aa9816108df878a612658565b9050613ab9816108df8789612658565b9050613aca816108df8d6008615080565b9050613ad6818a61263b565b60e08b01525082613aeb816108df818b612658565b9050613afb816108df868a612658565b9050613b0b816108df8689612658565b9050613b1c816108df8d6008615080565b9050613b28818a61263b565b6101008b01525081613b3e816108df818b612658565b9050613b4e816108df858a612658565b9050613b5e816108df8589612658565b9050613b6f816108df8d6008615080565b9050613b7b818a61263b565b6101208b01525080613b91816108df818b612658565b9050613ba1816108df848a612658565b9050613bb1816108df8489612658565b9050613bc2816108df8d6008615080565b9050613bce818a61263b565b610140909a019990995250505050505050505050565b613c246040518060e00160405280600081526020016000815260200160008152602001600081526020016000815260200160008152602001600081525090565b613c2f84601d615080565b8152613c3c84601e615080565b6020820152613c4c846024615080565b6040820152613c5c846027615080565b6060820152613c6c846026615080565b6080820152613c7c846025615080565b60a08201526000613c8e856002615080565b90506000613c9d866000615080565b90506000613cb384604001518560000151612673565b90506000613cc98560200151866020015161263b565b60608601519091508690600090613ce0908061263b565b90506000613cff613cf989602001518a6060015161263b565b8861263b565b90506000613d1f613d188a60a001518b60400151612658565b8a51612658565b9050613d2e613981828861263b565b9050613d55613d4f613d49613d438487612673565b88612673565b84612658565b83612658565b9050613d7d613d72613d67838761263b565b6108df8f6009615080565b6108df60018a612673565b6101608c01525050505060208501516080860151600091613d9d91612658565b90506000613dbc613db288606001518861263b565b8860200151612673565b90506000613de2613dcd848761263b565b6108e46137698b60a001518c60000151612673565b9050613e0a613dff613df4838c61263b565b6108df8e6009615080565b6108df600189612673565b6101808b01525060009150613e2c9050613e25836011612658565b875161263b565b90506000613e3a8384612658565b9050613e468182612658565b90506000613e5583600961263b565b9050613e7f613e79613734613e728b60a001518c60000151612658565b8b51612658565b82612673565b60c08901819052600090613e9b90613cf990613d67908d61263b565b9050613eae8b600b602002015182612658565b6101608c01525050865160009250613ed69150613e2590613ecf9080612658565b8851612658565b90506000613f18613ef3836108df8a600001518b60a00151612673565b602089015161090390613f069080612658565b6108df8b602001518c60800151612658565b9050613f3589600c60200201516108e4613cf9613d67858d61263b565b89600c602002015250505050505050505050565b613fc2604051806101e001604052806000815260200160008152602001600081526020016000815260200160008152602001600081526020016000815260200160008152602001600081526020016000815260200160008152602001600081526020016000815260200160008152602001600081525090565b613fda613fd086601e615080565b856040015161263b565b808252613ff9906108e4613fef88601d615080565b876020015161263b565b80825261400e906108e4613e2588601c615080565b808252614020906108e4876001615080565b808252602082018190526140399061090387601f615080565b8152614054614049866024615080565b61090387601c615080565b6080820152614072614067866027615080565b61090387601f615080565b6060820152608081015161408b906108df816001612673565b6101c082015260808101516140cc906140c2906140bb906108df6001600080516020615d9f833981519152615691565b6001612658565b826060015161263b565b60a08201819052614102906140f4906108df6140e9896002615080565b6108df8a6003615080565b6108df61376988600a615080565b83600e60200201526101c0810151614126906140f4906108df6140e9896002615080565b6101e0840152805161414b906108df614140886002615080565b6108df896003615080565b610120820152600061416b61416187601f615080565b8360200151612673565b905061417c816108df836001612673565b60e083015261419961418f876026615080565b866040015161263b565b604083018190526141bc906108e46141b2896025615080565b886020015161263b565b604083018190526141dc906108e46141d5896024615080565b885161263b565b60408301526141f96141ef876027615080565b8360400151612673565b6040830152600061421961420e886026615080565b61090389601e615080565b905061426d61424761347c6140bb86608001516001600080516020615d9f8339815191526108df9190615691565b6108df6140bb86604001516001600080516020615d9f8339815191526108df9190615691565b60c0840152604083015161428f90614285908061263b565b8460400151612673565b61010084015260c08301516142bb906142ad906108df8a6004615080565b6108df6139818a600a615080565b6102008601526101c08301516142da906142ad906108df8a6004615080565b6102208601526101008301516142f9906142ad906108df8a6004615080565b61024086015260e0830151614313906108df896004615080565b610140840152614332614327886025615080565b61090389601d615080565b61016084015260808301516143719061420e90614366906140bb906108df6001600080516020615d9f833981519152615691565b85610160015161263b565b61018084018190526101208401516101a085018190526143a8916108e4906108df61439d8c6005615080565b6108df8d6002615080565b6101a0840181905283516143c991906108e4906108df61439d8c6000615080565b6101a084018190526101408401516143e19190612658565b6101a084018190526143fb906108df6139818a600a615080565b6101a0840181905285600d6137a6565b61444b6040518060e00160405280600081526020016000815260200160008152602001600081526020016000815260200160008152602001600081525090565b61448061446761445c86601c615080565b6108df876025615080565b6108e4614475876024615080565b6108df88601d615080565b81526144c56144ba6144a161449687601c615080565b6108df88601f615080565b6108e46144af88601d615080565b6108df89601e615080565b610903866026615080565b604082018190526144da90600160441b61263b565b604082018190526144f090610903866027615080565b6040820181905281516145039190612658565b60408201819052614519906108df866005615080565b6040820152805161452e90600160441b61263b565b80825261454e906108e4614543876024615080565b6108df886025615080565b808252602082018190526145759061090361456a87601e615080565b6108e488601f615080565b6020820181905261458b906108df866004615080565b60208201528051606082018190526145a8906108e486601f615080565b606082018190526145cc906109036145c1876026615080565b6108e4886027615080565b606082018190526145e2906108df866000615080565b816060018181525050600061460c61460283602001518460400151612658565b8360600151612658565b905061461d816108df876003615080565b905061463561462d866025615080565b61400061263b565b6080830181905261464b906108e4876024615080565b6080830181905261465e9061400061263b565b60808301819052614674906108e487601e615080565b608083018190526146879061400061263b565b6080830181905261469d906108e487601d615080565b608083018190526146b09061400061263b565b608083018190526146c6906108e487601c615080565b608083018190526146dc9061090387601f615080565b608083018190526146f2906108df876005615080565b608083015261470561462d866026615080565b60a0830181905261471b906108e4876025615080565b60a0830181905261472e9061400061263b565b60a08301819052614744906108e4876024615080565b60a083018190526147579061400061263b565b60a0830181905261476d906108e487601f615080565b60a083018190526147809061400061263b565b60a08301819052614796906108e487601e615080565b60a083018190526147ac90610903876027615080565b60a083018190526147c2906108df876000615080565b60a0830181905260808301516000916147db9190612658565b90506147ec816108df886004615080565b90506147f88282612658565b60c08401819052614811906108df61398189600b615080565b60c084018190528560136020020152505050505050565b6148af60405180610220016040528060008152602001600081526020016000815260200160008152602001600081526020016000815260200160008152602001600081526020016000815260200160008152602001600081526020016000815260200160008152602001600081526020016000815260200160008152602001600081525090565b6148c86148bd85601c615080565b6108e4866002615080565b81526148e36148d885601d615080565b6108e4866003615080565b60208201526149016148f685601e615080565b6108e4866004615080565b604082015261491f61491485601f615080565b6108e4866005615080565b606082015280516149519061494a906149439061493c908061263b565b845161263b565b835161263b565b825161263b565b6080820152602081015161498f906149859061497b90614971908061263b565b846020015161263b565b836020015161263b565b826020015161263b565b60a082015260408101516149cd906149c3906149b9906149af908061263b565b846040015161263b565b836040015161263b565b826040015161263b565b60c08201526060810151614a01906140c2906149f7906149ed908061263b565b846060015161263b565b836060015161263b565b60e0820152608081015160a0820151614a1a9190612658565b61010082015260c081015160e0820151614a349190612658565b61012082015260a0810151614a5890614a4d9080612658565b826101200151612658565b61014082015260e0810151614a7c90614a719080612658565b826101000151612658565b610160820152610120810151614a929080612658565b6101e08201819052614ab390614aa89080612658565b826101600151612658565b6101e0820152610100810151614ac99080612658565b6101a08201819052614aea90614adf9080612658565b826101400151612658565b6101a08201819052610160820151614b0191612658565b6101808201526101408101516101e0820151614b1d9190612658565b6101c0820152614b3161347c85600c615080565b6102008201819052610280840151610180830151614b5c926108e4916108df906109038a6024615080565b8360146020020152614b8c83601560200201516108e48361020001516108df856101a001516109038a6025615080565b8360156020020152614bbc83601660200201516108e48361020001516108df856101c001516109038a6026615080565b8360166020020152614bec83601760200201516108e48361020001516108df856101e001516109038a6027615080565b836017602002015250505050565b614c5760405180610160016040528060008152602001600081526020016000815260200160008152602001600081526020016000815260200160008152602001600081526020016000815260200160008152602001600081525090565b60006040518060800160405280614c8d7f10dc6e9c006ea38b04b1e03b4bd9490c0d03f98929ca1d7fb56821fd19d3b6e7612621565b8152602001614cbb7f0c28145b6a44df3e0149b3d0a30b3bb599df9756d4dd9b84a86b38cfb45a740b612621565b8152602001614ce87e544b8338791518b2c7645a50392798b21f75bb60e3596170067d00141cac15612621565b8152602001614d167f222c01175718386f2e2e82eb122789e352e105a3b8fa852613bc534433ee428b612621565b90529050614d33614d2886601c615080565b6108e4876002615080565b6101208301819052614d7290614d6790614d5c90614d51908061263b565b85610120015161263b565b84610120015161263b565b83610120015161263b565b8252614d7f85601d615080565b6020830152614d8f85601e615080565b6040830152614d9f85601f615080565b606083015281516020830151614dc79161460291614dbd9190612658565b8460400151612658565b6080830152614dda61373486600d615080565b6101408301528151614dfc90614df290836000610bee565b8360800151612658565b60a0830152614e2884601860200201516108e48461014001516108df8660a001516109038b6024615080565b6103008501526020820151614e4390614df290836001610bee565b60c0830152614e6f84601960200201516108e48461014001516108df8660c001516109038b6025615080565b6103208501526040820151614e8a90614df290836002610bee565b60e0830152614eb684601a60200201516108e48461014001516108df8660e001516109038b6026615080565b6103408501526060820151614ed190614df290836003610bee565b610100830152614eff84601b60200201516108e48461014001516108df8661010001516109038b6027615080565b84601b6135b7565b815160015b601c811015614f5957614f4f826108e48684601c8110614f2e57614f2e615c1c565b602002015186614f3f600187615691565b601b8110610bee57610bee615c1c565b9150600101614f0c565b5092915050565b60008083905060006040516020815260208082015260206040820152826060820152846080820152600080516020615d9f83398151915260a08201526020600060c08360055afa80614fb157600080fd5b5060005160809190910160405295945050505050565b614fcf6153bd565b614fd76153bd565b604051835181526020840151602082015284604082015260408160608360075afa8061500257600080fd5b5080518252602080820151908301526060016040529392505050565b6150266153bd565b61502e6153bd565b6040518451815260208501516020820152835160408201526020840151606082015260408160808360065afa8061506457600080fd5b5080518252602080820151908301526080016040529392505050565b60008282602881111561509557615095615d28565b602981106150a5576150a5615c1c565b60200201519392505050565b604051806103e001604052806000815260200160008152602001600081526020016150da6153bd565b81526020016150e76153bd565b81526020016150f46153bd565b81526020016151016153bd565b815260200161510e6153bd565b815260200161511b6153bd565b81526020016151286153bd565b81526020016151356153bd565b81526020016151426153bd565b815260200161514f6153bd565b815260200161515c6153bd565b81526020016151696153bd565b81526020016151766153bd565b81526020016151836153bd565b81526020016151906153bd565b815260200161519d6153bd565b81526020016151aa6153bd565b81526020016151b76153bd565b81526020016151c46153bd565b81526020016151d16153bd565b81526020016151de6153bd565b81526020016151eb6153bd565b81526020016151f86153bd565b81526020016152056153bd565b81526020016152126153bd565b815260200161521f6153bd565b815260200161522c6153bd565b81526020016152396153bd565b905290565b604051806102800160405280615252615490565b815260200161525f6153bd565b815260200161526c6153bd565b81526020016152796153bd565b81526020016152866153bd565b81526020016152936153bd565b81526020016152a06153bd565b81526020016152ad6153bd565b81526020016152ba6153bd565b81526020016152c76153bd565b81526020016152d46154af565b8152602001600081526020016152e86154dc565b8152602001600081526020016152fc61550a565b8152602001615309615529565b8152602001615316615409565b815260200161521f615557565b6040518061052001604052806029906020820280368337509192915050565b604051806101c0016040528060008152602001600081526020016000815260200160008152602001600081526020016000815260200160008152602001615387615557565b8152602001615394615557565b815260200160008152602001600081526020016000815260200160008152602001606081525090565b604051806040016040528060008152602001600081525090565b604051806040016040528061522c6153bd565b6040518061012001604052806009906020820280368337509192915050565b604051806103800160405280601c906020820280368337509192915050565b6040518060e0016040528061543b615575565b815260200160008152602001600081526020016000815260200160008152602001615464615575565b8152602001600081525090565b6040518061010001604052806008906020820280368337509192915050565b6040518061020001604052806010906020820280368337509192915050565b60405180606001604052806003905b6154c66153bd565b8152602001906001900390816154be5790505090565b604051806103800160405280601c905b6154f46153ea565b8152602001906001900390816154ec5790505090565b604051806105400160405280602a906020820280368337509192915050565b604051806103600160405280601b905b6155416153bd565b8152602001906001900390816155395790505090565b60405180608001604052806004906020820280368337509192915050565b604051806120000160405280610100906020820280368337509192915050565b600080600080604085870312156155ab57600080fd5b84356001600160401b038111156155c157600080fd5b8501601f810187136155d257600080fd5b80356001600160401b038111156155e857600080fd5b8760208284010111156155fa57600080fd5b6020918201955093508501356001600160401b0381111561561a57600080fd5b8501601f8101871361562b57600080fd5b80356001600160401b0381111561564157600080fd5b8760208260051b840101111561565657600080fd5b949793965060200194505050565b634e487b7160e01b600052601160045260246000fd5b808202811582820484141761265257612652615664565b8181038181111561265257612652615664565b8060005b60108110156131e45781518452602093840193909101906001016156a8565b80518252602090810151910152565b8060005b60038110156131e4576156ee8483516156c7565b60409390930192602091909101906001016156da565b8060005b601c8110156131e45781518460005b6009811015615736578251825260209283019290910190600101615717565b505050610120939093019260209190910190600101615708565b8060005b602a8110156131e4578151845260209384019390910190600101615754565b8060005b601b8110156131e45761578b8483516156c7565b6040939093019260209190910190600101615777565b8060005b601c8110156131e45781518452602093840193909101906001016157a5565b8060005b60048110156131e45781518452602093840193909101906001016157c8565b81835260006001600160fb1b0383111561580057600080fd5b8260051b80836020870137939093016020019392505050565b6158248188516156a4565b600060208801516158396102008401826156c7565b50604088015161584d6102408401826156c7565b5060608801516158616102808401826156c7565b5060808801516158756102c08401826156c7565b5060a08801516158896103008401826156c7565b5060c088015161589d6103408401826156c7565b5060e08801516158b16103808401826156c7565b506101008801516158c66103c08401826156c7565b506101208801516158db6104008401826156c7565b506101408801516158f06104408401826156d6565b50610160880151610500830152610180880151615911610520840182615704565b506101a08801516124a08301526101c08801516159326124c0840182615750565b506101e0880151615947612a00840182615773565b5061020088015161595c6130c08401826157a1565b506102208801516159716134408401826157c4565b506102408801516159866134c08401826156c7565b5061026088015161599b6135008401826156c7565b506135c06135408301526159b46135c0830187896157e7565b613560830195909552506135808101929092526135a0909101529392505050565b634e487b7160e01b600052604160045260246000fd5b60405161014081016001600160401b0381118282101715615a0e57615a0e6159d5565b60405290565b604051601f8201601f191681016001600160401b0381118282101715615a3c57615a3c6159d5565b604052919050565b600060c08284031215615a5657600080fd5b60405160c081016001600160401b0381118282101715615a7857615a786159d5565b604090815283518252602080850151908301528381015190820152606080840151908201526080808401519082015260a0928301519281019290925250919050565b600082601f830112615acb57600080fd5b6000610360615ad981615a14565b915083018185821115615aeb57600080fd5b845b82811015615b05578051825260209182019101615aed565b509195945050505050565b600082601f830112615b2157600080fd5b6000610380615ad981615a14565b6000610be0828403128015615b4357600080fd5b506000615b4e6159eb565b615b588585615a44565b8152615b678560c08601615aba565b6020820152615b7a856104208601615b10565b60408201526107a08401516060820152615b98856107c08601615b10565b6080820152610b4084015160a0820152610b6084015160c0820152610b8084015160e0820152610ba0840151610100820152610bc090930151610120840152509092915050565b8082018082111561265257612652615664565b60008085851115615c0257600080fd5b83861115615c0f57600080fd5b5050820193919092039150565b634e487b7160e01b600052603260045260246000fd5b600060018201615c4457615c44615664565b5060010190565b8035602083101561265257600019602084900360031b1b1692915050565b600082615c8657634e487b7160e01b600052601260045260246000fd5b500690565b600081615c9a57615c9a615664565b506000190190565b60008183825b6008811015615cc7578151835260209283019290910190600101615ca8565b5050506101008201905092915050565b6000825160005b81811015615cf85760208186018101518583015201615cde565b506000920191825250919050565b600060208284031215615d1857600080fd5b815180151581146103ff57600080fd5b634e487b7160e01b600052602160045260246000fdfe30644e72e131a029b85045b68181585d2833e84879b9709143e1f593effffd3130644e72e131a029b85045b68181585d97816a916871ca8d3c208c16d87cfd47204bd3277422fad364751ad938e2b5e6a54cf8c68712848a692c553d0329f5d630644e72e131a029b85045b68181585d2833e84879b9709143e1f593f000000130644e72e131a029b85045b68181585d2833e84879b9709143e1f593efffec51a264697066735822122024cc8c9aa85bb189ab75cf72b595ca564802ff7053100368455c637282b2163164736f6c634300081e0033",
  "libraries": {
    "LessThanSignedAgeZKTranscriptLib": "0x220aF67fc4614e6Cdf7409754c68D37072B93dAd"
  },
  "devdoc": {
    "kind": "dev",
    "methods": {},
    "version": 1
  },
  "userdoc": {
    "kind": "user",
    "methods": {},
    "version": 1
  },
  "storageLayout": {
    "storage": [],
    "types": null
  }
}